:10000000F85F002011040000852900008529000008
:100010008529000085290000852900008529000028
:100020008529000085290000852900008529000018
:100030008529000085290000852900008529000008
:1000400085290000852900008529000085290000F8
:10040000FFFFFFFFFFFFFFFFFFFFFFFFFEFFFFFFFD
:1004100062B606F01DFFFEE738B5274800780128D0
:1004200048D1002024490870FF211431012001F037
:1004300011FAFF211431062001F00CFA00F046F801
:1004400000F06CFE1D4908601C4802680121022072
:1004500001F0A4FB1A480078012827D1002001F000
:10046000D2FC0021C943002001F07CFE0024282C8E
:100470001CDA00256E2D17DA12486E2161434018F0
:10048000405DFF2805D1FE200E496E226243891887
:1004900048550C486E2161434018415D49B2002027
:1004A00001F060FE6D1CE5E7641CE0E706490120F1
:1004B00001F0D0F931BD0000141F0020740A0020A3
:1004C0001C1F002014E8FF1F13010A00F0B5ADB097
:1004D0001AA84C2101F088FE07A84C2101F084FEE7
:1004E00000200690002005900025002069468872B3
:1004F000002600F087FFB6480088562802DA55200B
:10050000B3490880B3480078002800D06CE100208F
:10051000069000200590B04800682D2801DA2D20B3
:1005200001E0AD480068042842DBAC49BF4A1278BC
:100530006E235A438918095C01292BD1A749BB4A6C
:1005400012786E235A4389180918491E0978002920
:1005500020D1A249B54A12786E235A438918091846
:100560004978012922D19D49B04A12786E235A4315
:1005700089180918891E0978002917D19849AB4AAA
:100580001278984B1B78D21A04235A4388500020C3
:1005900006900DE09249A54A1278924B1B78D21A28
:1005A00004235A430F238B5001210691401EBAE7C2
:1005B00089480068422801DB412001E08648006844
:1005C0006A2841DA8549994A12786E235A43891874
:1005D000095C01292AD18149944A12786E235A4331
:1005E000891809184978002920D17C498F4A127846
:1005F0006E235A4389180918491E0978012921D107
:1006000076498A4A12786E235A43891809188978DC
:10061000002917D1CC49854A1278724B1B78D21A1F
:1006200004235A438850002005900DE0C6497F4AB4
:1006300012786C4B1B78D21A04235A435F238B50D9
:1006400001210591401CBBE706980599014300294B
:1006500036D1BE4F7548007862490978411A0420A6
:10066000414300915E48714909785E4A1278891ABF
:10067000042251434258B44B6C48007859490978D8
:10068000411A0420414358581018022101F0C4FDBA
:1006900000997850AC4865490978524A1278891A0D
:1006A0000422514340584E49604A12784D4B1B7802
:1006B000D21A04235A438958401A4549088082E0D7
:1006C0000698012838D10598002835D19E48574909
:1006D0000978444A1278891A0422514347583C4801
:1006E0000088022101F098FD381A032801DA03205E
:1006F0000EE095484D4909783A4A1278891A042241
:100700005143475832480088022101F085FD381ACC
:100710008E49464A1278334B1B78D21A04235A4327
:1007200088502F48414909782E4A1278891A0422A4
:1007300051430F22425046E00698002838D10598D0
:10074000012835D1264839490978264A1278891A6C
:100750000422514347581E480088022101F05CFDE5
:1007600038186B2801DB6A200EE01D482F490978F4
:100770001C4A1278891A04225143475814480088A9
:10078000022101F049FD38187049284A1278154BAA
:100790001B78D21A04235A4388506B48234909789E
:1007A000104A1278891A042251435F2242500AE00B
:1007B00066481E4909780B4A1278891A0422514367
:1007C000054A126842500121222001F0E6FD2AE08C
:1007D00010E4FF1F151F002018E4FF1F44F9FF1F3E
:1007E000DCE6FF1F15E4FF1F584810490978C24A8C
:1007F0001278891A04225143C04A12684250C048F4
:100800000A490978BC4A1278891A042251430F22F6
:1008100042504D4805490978B74A1278891A04228E
:1008200051435F224250014802E000BF14E4FF1F21
:1008300007787F1EB0480078874200DA26E3B04888
:10084000AD490978791A491C0422514340580F38A0
:10085000032801DA032008E0A948A7490978791A92
:10086000491C0422514340580F38A6496E227A434E
:1008700089180C183548A0490978791A042251437F
:10088000401841689E489C4A1278BA1A521C0423A8
:100890005A4380580F30814208DA2C48964909782B
:1008A000791A042251434018406808E0944892495C
:1008B0000978791A491C0422514340580F30914954
:1008C0006E227A438918081884421AD2601E007872
:1008D000012808D12078002805D16078012802D1AC
:1008E000012020700BE0601E0078002807D12078DE
:1008F000012804D16078002801D100202070641CF8
:10090000B8E77F487C490978791A491C0422514389
:1009100040580F306B2801DB6A2008E078487649A0
:100920000978791A491C0422514340580F30744900
:10093000714A1278BA1A521C04235A4389580F3943
:10094000032905DA03210CE02CE7FF1F7CE7FF1FDA
:100950006B49694A1278BA1A521C04235A438958BF
:100960000F39814242DA67496E227A438918095C5D
:10097000012929D163496E227A4389180918491E31
:100980000978002920D15F496E227A438918091815
:100990004978012928D15B496E227A4389180918C0
:1009A000891E097800291FD15549534A1278BB1A6C
:1009B00004225343C8501AA84F490978791A0422CF
:1009C00051430022425011E04D494B4A1278BA1A65
:1009D00004235A430F238B501AA9474A1278BA1A94
:1009E00004235A4301238B50401EA0E7B8484249D4
:1009F0000978791A491C0422514340580F386B2852
:100A000001DB6A2008E0B2483B490978791A491CA1
:100A10000422514340580F383A496E227A438918CC
:100A20000C18C74834490978791A042251434018F0
:100A30004168A748304A1278BA1A521C04235A4314
:100A400080580F30814208DABD482B490978791A5D
:100A5000042251434018406808E09D48264909781F
:100A6000791A491C0422514340580F3025496E22FF
:100A70007A438918081884421AD2601E0078012827
:100A800008D12078002805D16078012802D1012002
:100A900020700BE0601E0078002807D12078012824
:100AA00004D16078002801D100202070641CB8E7D0
:100AB000874811490978791A491C04225143405842
:100AC0000F38032801DA032008E081480A49097831
:100AD000791A491C0422514340580F387C49064A70
:100AE0001278BA1A521C04235A4389580F316B29C1
:100AF0000ADB6A2111E000BF15E4FF1F18E4FF1FA5
:100B0000DCE6FF1F44F9FF1F7149AF4A1278BA1A99
:100B1000521C04235A4389580F31884241DAAB49A9
:100B20006E227A438918095C012928D1A7496E22CF
:100B30007A43891809184978002920D1A3496E22DF
:100B40007A4389180918491E0978012927D19F4934
:100B50006E227A4389180918897800291FD15C49C7
:100B6000994A1278BB1A04225343C85007A89649E1
:100B70000978791A042251430022425011E0544965
:100B8000914A1278BA1A04235A435F238B5007A95B
:100B90008D4A1278BA1A04235A4301238B50401C01
:100BA0009CE71AA888490978791A042251434058C9
:100BB000002800D08EE007A883490978791A04221A
:100BC00051434058002800D084E05D487E490978B0
:100BD0007A1A04214A4300920190D04A7A48007858
:100BE000391A042041435258394B77480078391A52
:100BF0000420414358581018022101F00DFB010058
:100C00000198009A815032486F490978791A042274
:100C100051434158C1486C4A1278BA1A04235A43C6
:100C20008058081ABE490880BC4867490978791A73
:100C30000422514341580091B9480088022101F033
:100C4000EBFA009908186B2801DB6A200EE0B34824
:100C50005D490978791A0422514341580091B048FE
:100C60000088022101F0D8FA009908183449564A40
:100C70001278BB1A04225343C850154852490978C8
:100C8000791A0422514341580091A5480088022155
:100C900001F0C2FA0099081A032801DA03200EE0D5
:100CA0000B4849490978791A042251434158009167
:100CB0009B480088022101F0AFFA0099081A2049E8
:100CC000414A1278BB1A04225343C850DCE000BFEB
:100CD0002CE7FF1F1AA83C490978791A04225143CE
:100CE000405801284BD107A837490978791A0422BE
:100CF00051434058002842D18A4833490978791A2B
:100D0000042251434158009185480088022101F096
:100D100083FA0099081A032801DA03200EE08148BB
:100D200029490978791A04225143415800917C4895
:100D30000088022101F070FA0099081A004901E0C8
:100D40007CE7FF1F204A1278BB1A04225343C85085
:100D5000724B1D4800783A1A042042436F4884467B
:100D600019480078391A0420414360464018406809
:100D7000985068466946897A491C817284E01AA8AD
:100D800011490978791A042251434058002848D162
:100D900007A80D490978791A0422514340580128BF
:100DA0003FD15E4808490978791A042251434158D5
:100DB00000915B480088022101F02EFA0099081882
:100DC0006B2805DB6A2012E015E4FF1F44F9FF1FC2
:100DD0005248B7490978791A042251434158009181
:100DE0004F480088022101F017FA00990818BD4900
:100DF000AF4A1278BB1A04225343C850494BAC483F
:100E000000783A1A0420424346488446A8480078AD
:100E1000391A042041436046401840689850761CB7
:100E200032E0B04BA24800783A1A04204243AD4861
:100E300084469F480078391A042041436046401890
:100E400040689850354B9A4800783A1A042042433B
:100E50003248844696480078391A04204143604657
:100E60004018406898502F4B914800783A1A042057
:100E700042432C4884468E480078391A0420414366
:100E800060464018406898507F1ED3E4964800782A
:100E9000012801D100F05EFB2048806A9349088058
:100EA0002048806A924908808E4A92480178924888
:100EB000007800F0F3F991490860002005008D48A2
:100EC00000788D490978814209DB8649784A127891
:100ED000821A04235A4389586D18401CF1E7ADB2B9
:100EE00028000A2101F098F900B285490860854878
:100EF0000078012818D18248006883490968401A9F
:100F000001F0D4FA4900490801F0EAFA7F49086083
:100F10007B48006810307A4908601BE0DCE6FF1F60
:100F200010E4FF1F2CE7FF1F79480078012811D13A
:100F30007548006872490968401A01F0B7FA49001B
:100F4000490801F0CDFA714908606D4800680D3814
:100F50006B4908606A480068CF4908806D4800788E
:100F6000012800D0A1E0012000F04DFF142014283A
:100F700075DB4121022936DB674A6E234343D218D1
:100F800052189278012A26D1634A6E234343D2181D
:100F900052185278012A1ED15F4A6E234343D21859
:100FA000525C012A17D15C4A6E234343D21852186F
:100FB000521E1278002A0ED1574A6E234343D2188C
:100FC0005218921E1278002A05D16A461182002119
:100FD0006A46517207E003226B461A8201226B4671
:100FE0005A72491EC6E72D216B2936DA4A4A6E230A
:100FF0004343D21852189278002A26D1464A6E23CB
:101000004343D21852185278002A1ED1424A6E2306
:101010004343D218525C012A17D13F4A6E234343FF
:10102000D2185218521E1278012A0ED13A4A6E2353
:101030004343D2185218921E1278012A05D16A46EB
:10104000D18100216A46117207E06A226B46DA817B
:1010500001226B461A72491CC6E7401E87E76846A4
:10106000407A002815D16846007A002811D16846D8
:10107000008A6946C9894018022101F0CDF8694605
:1010800088810020234908700021222001F085F981
:1010900003E081480088694688816846808918494C
:1010A0000860174800687C4908802DB0F0BD00003A
:1010B00015E4FF1F00B500221000C0B2282810DA86
:1010C00000221100C9B26E2909DABC4AC0B26E23EF
:1010D0004343D218C9B200235354491CF2E7401CC1
:1010E000EBE700BD7CE7FF1F1F1F00200C1F002047
:1010F0000E1F002017E4FF1F16E4FF1FDCE7FF1F91
:1011000018E4FF1F161F0020ECE7FF1FE0E7FF1F9A
:10111000171F0020151F002044F9FF1F10B5A84815
:101120000068373801F022FAA6490860A54800682F
:10113000A54901F037FA0CD2A2480068002101F05D
:1011400045FA06D2A148A2490860A248A24908600F
:1011500047E09C4800689C4901F038FA14D8994847
:101160000068002101F032FA0ED29C4801689748CD
:1011700001F040FA9649086099480168954801F0E5
:1011800039FA954908602CE08E480068954901F0CD
:101190001DFA0CD88B480068002101F003FA06D232
:1011A00091488B4908608B488B49086019E0854855
:1011B00000688E4901F0F6F913D2824800680021D8
:1011C00001F0F0F90DD285480168874801F012FA64
:1011D0007F490860824801687E4801F00BFA7E4929
:1011E000086083480078012805D182487849086062
:1011F00081487949086081480078012805D18048F4
:10120000734908607C4874490860714801686D48FA
:10121000006801F07FFA01000C006A480068BE49CE
:10122000096801F01FFA6C49096801F073FA21009E
:1012300001F0E0F901F0C8FAB849086061480068B7
:10124000B5490860B5480068B54909684018B34910
:101250000860B34800689621C9004018AF49096882
:10126000884206D2AE4800689621C9004018AB49B2
:101270000860AA480068AA490968AA4A89188842E9
:1012800005D2A7480068A7494018A4490860A348A8
:10129000006800B210BD000012E4FF1FF7B584B073
:1012A000002400250020029000266846077D68463D
:1012B000007CB84232DB380001F058F9210001F01F
:1012C00099F904003800784301F050F9290001F041
:1012D00091F905000698042179434018924909784C
:1012E0000322D2435143405801F040F901000298D3
:1012F00001F080F9029006980421794340188A4948
:1013000009780322D24351434058784301F02EF923
:10131000310001F06FF906007F1CC8E76846007CC9
:101320006946097D401A01F021F9290001F0F2F91E
:1013300007002000210001F0EDF90100380001F064
:1013400091F9002101F05EFA31D06846007C6946CF
:10135000097D401A401C01F009F9310001F0DAF969
:1013600007000298210001F0D5F90100380001F0D2
:1013700079F900906846007C6946097D401A401C56
:1013800001F0F4F8290001F0C5F907002000210060
:1013900001F0C0F90100380001F064F90100009883
:1013A00001F040FA019001986049086002E05F484E
:1013B00000680190019807B0F0BD000014E8FF1F1D
:1013C00018E4FF1FCCE7FF1F000088410000984190
:1013D000D4E7FF1F00002042D8E7FF1F1CE4FF1FD7
:1013E00020E4FF1FFFFF87C100005041000088C1BB
:1013F000161F00200000904100000C42171F002023
:101400000000B04130B50022494B1A60464A1278BC
:101410001000484A1278C0B2824210D3464AC0B285
:101420006E234343D218454BC0B23F4C2478041B73
:1014300004256C431B590024D454401CE9E73D4A61
:1014400012781000384A1278C0B2904254D3002269
:101450001100C9B26E2936DA394A1278364BC0B259
:101460006E2444431B19C9B25B5C9A420DD2354AC3
:10147000C0B26E234343D218C9B201235354324A37
:101480001268521C304B1A6007E02E4AC0B26E231D
:101490004343D218C9B200235354C9B2042910DB04
:1014A000C9B27D290DDA294AC0B280234343D2183C
:1014B000C9B2244BC0B26E2444431B19C9B25B5C51
:1014C0005354491CC5E7C0B2242810DA1E4A1268DA
:1014D0006D2A08DB00221C4B1A60154A1268521C48
:1014E000134B1A6006E00022174B1A6002E000223C
:1014F000154B1A60401EA5E70D4A1268042A06DB48
:101500000122134B1A700022094B1A6002E00022DC
:10151000074B1A6030BD0000D0E7FF1F740A00209F
:1015200038E4FF1F50FBFFFF15E4FF1FF0E7FF1F2C
:10153000F4E7FF1F14E4FF1F14E8FF1F7CE7FF1F01
:1015400035E4FF1F44F9FF1FF8E7FF1F780A00206A
:10155000151F002080B53C20042830DBB449B54A73
:1015600012686E235A4389180918891E09780029C0
:1015700020D1AF49AF4A12686E235A43891809181F
:10158000491E0978002915D1A949AA4A12686E2373
:101590005A438918095C01290CD1A549A54A12684A
:1015A0006E235A43891809184978012902D1A249A2
:1015B000086004E00321A04A1160401ECCE73220FD
:1015C0006A282FDA9A499B4A12686E235A4389186F
:1015D0000918491E097801291FD19549954A1268B1
:1015E0006E235A438918095C012916D19049914A02
:1015F00012686E235A4389180918497800290CD1BA
:101600008B498C4A12686E235A43891809188978C5
:10161000002902D18849486004E06A21864A516065
:10162000401CCDE78448406883490968401A1A285D
:1016300000DAF5E0804840687F490968401A2328AD
:1016400000DBEDE07C4840687B49096840180221D6
:1016500000F0E2FD794908607748006803286BD004
:10166000754840686A2867D074480068372863DA8C
:101670006F48704909686E22514340186E494968A5
:1016800040184078002800D0C2E0694869490968DC
:101690006E225143401868494968401880780028F4
:1016A00000D0B5E06248634909686E225143401892
:1016B0006149496840180079002800D0A8E05C48DA
:1016C0005C4909686E22514340185B4949684018DB
:1016D000DA380078002800D09AE055485549096862
:1016E0006E2251434018544949684018D93800784F
:1016F000002800D08CE04E484E4909686E225143C4
:1017000040184D4949684018D8380078002800D062
:101710007EE001204A49087001204A4908700021F2
:10172000222000F03AFE48480088484909684143B1
:10173000012001F0CDF86BE03F480068032867D036
:101740003D4840686A2863D03C48006838285FDB21
:101750003748384909686E225143401836490968AC
:101760004018401E0078002852D13148314909689C
:101770006E2251434018304909684018801E007895
:10178000002845D12A482B4909686E225143401848
:10179000294909684018001F0078002838D12448DA
:1017A000244909686E2251434018234909684018AA
:1017B000DE38007800282BD11D481E4909686E22AA
:1017C000514340181C4909684018DF380078002848
:1017D0001ED11748174909686E225143401816490F
:1017E00009684018E0380078002811D10120184914
:1017F00008700120134908700021222000F0CDFD5F
:1018000011480088114909684143012001F060F83E
:10181000002009494860084840680749086006E018
:10182000002005494860044840680349086001BD3C
:1018300044F9FF1F28E4FF1FE4E7FF1FECE7FF1F49
:10184000171F0020181F002024E4FF1FB81E0020CF
:10185000161F002010B4324A126880239B00040037
:10186000E4B26409A34013432D4A13602D4AC0B269
:1018700003005B1104246343D258A0320123C40641
:10188000E40EA3401360274AC0B203005B11042496
:101890006343D258C0B2C306DB0E04246343D15065
:1018A00010BC704710B41E4A126880239B000400CD
:1018B000E4B26409A3401343194A1360194AC0B241
:1018C00003005B1104246343D258A0320123C406F1
:1018D000E40EA34013600A00134911400A001149A5
:1018E000C0B203005B1104246343C958C0B2C306ED
:1018F000DB0E04246343CB58E021C9001940114397
:10190000084AC0B203005B1104246343D258C0B23A
:10191000C306DB0E04246343D15010BC70470000A3
:101920003880044048E6FF1FFFF8FFFF38B5040089
:101930000D0064B2002C03D0022C55D039D36EE0D8
:1019400095480068802149040143934801606DB2C5
:10195000002D08D0022D12D00BD3042D1BD014D390
:10196000052D1ED023E08021C9006020FFF772FF03
:101970001EE0C02189000420FFF76CFF18E0C021A1
:1019800089000520FFF766FF12E08021C90063206F
:10199000FFF760FF0CE0C02189009F20FFF75AFF8E
:1019A00006E0C02189009A20FFF754FF00E036E0EE
:1019B00035E0794800688021890401437648016058
:1019C0006DB2002D02D0012D06D00BE0C0218900A0
:1019D0000C20FFF73FFF06E0C02189000D20FFF734
:1019E00039FF00E01BE01AE06B4800688021C90461
:1019F0000143694801606DB2002D02D0012D06D06F
:101A00000BE0C02189000120FFF724FF06E0C02180
:101A100089002320FFF71EFF00E000E0FFE731BD53
:101A2000FCB583B006000F0076B2002E02D17FB263
:101A3000062F0CDB76B2012E02D076B2022E02D136
:101A40007FB2022F03DBD8218C4800F087FF3900DA
:101A500049B2300040B2FFF769FF89480068894900
:101A60004843401001900198000C039900F0D7FB07
:101A7000040000200500A4B220002841012801DB59
:101A80006D1CF8E7EDB2082D03DBF3217B4800F075
:101A900065FF0198E840039900F0C1FB040076B2AD
:101AA000002E03D0022E17D00BD320E00498A4B24E
:101AB0002100491C4843744900F0B1FB6946088085
:101AC00015E00498A4B22100491C48436E4900F077
:101AD000A6FB694608800AE00498A4B22100491CCC
:101AE0004843694900F09BFB69460880FFE7AC4822
:101AF00076B20421714340587FB2082179434018DF
:101B0000A74976B20422724389587FB208227A43E9
:101B10008918C96804229143C160A14876B20421A2
:101B2000714340587FB20821794340182821C16091
:101B300095480068954901409348016092480068C3
:101B400080214904014390480160EDB26907490FC3
:101B500008200843924976B20422724389580860EB
:101B6000A4B28F4876B204217143405884608C48F7
:101B700076B20421714340587FB20821794340185E
:101B80006946098801610020854976B204227243C2
:101B90008958486005B0F0BD3C800440F8B50500A8
:101BA0000F00160000246DB2002D02D17FB2062F67
:101BB0000DDB6DB2012D02D06DB2022D02D17FB2CC
:101BC000022F04DBFF2130312C4800F0C7FE6DB23C
:101BD000002D03D0022D13D009D31AE07548864298
:101BE00004D39A214900254800F0B8FE11E071485D
:101BF000864204D39C214900204800F0AFFE08E053
:101C00006C48864204D39E2149001C4800F0A6FE81
:101C1000FFE763486DB204216943405880680400BF
:101C2000002CF6D06DB2002D03D0022D11D008D3B8
:101C300017E02000401C7043134900F0F0FA0090B8
:101C40000FE02000401C70430F4900F0E8FA0090BC
:101C500007E02000401C70430B4900F0E0FA0090C0
:101C6000FFE74F486DB20421694340587FB2082115
:101C70007943401800990161F1BD0000F075000042
:101C8000AC1E002040420F001027000070B5040079
:101C90000D00160076B2082E04DBFF219231464873
:101CA00000F05CFE64B2002C03D0022C11D008D3EB
:101CB00017E0424800688021490401433F48016021
:101CC00014E03E4800688021890401433B480160DC
:101CD0000CE03A4800688021C9040143374801609C
:101CE00004E0FF21A431344800F038FE6DB2002D2D
:101CF0000DD13348006880214904A1408843304910
:101D000008608021C9003020FFF7A4FD15E06DB206
:101D1000012D0DD12A48006880214904A1400143CA
:101D2000274801608021C9003120FFF793FD04E0BE
:101D3000D9214900204800F011FE134800681349DA
:101D400001401148016010480068802149040143A6
:101D50000D48016076B27007400F10210143104812
:101D600064B2042262438058016016480C4964B290
:101D700004226243895888600020094964B2042221
:101D800062438958486070BD04800440FFFFFFFC37
:101D90000021034A40B204234343D25851607047A4
:101DA0005CE6FF1F084940B20422504308584068CF
:101DB00080B2704711270000F07500003C8004409D
:101DC0000C800440FFFF00005CE6FF1F10B504001C
:101DD00064B2042C07DA01220121174864B2005DC5
:101DE00000F074FA0EE0042004002000441E40B20B
:101DF000002807D0012201210F4864B2005D00F0E5
:101E000065FAF2E710BD10B5040064B2042C05DADF
:101E1000094864B2005D00F003FB0CE004200400FC
:101E20002000441E40B2002805D0034864B2005D83
:101E300000F0F6FAF4E710BD98E6FF1FF1B584B0A4
:101E40000F00AE4869468881694610200856002870
:101E500003D0022825D012D335E0A948006880219C
:101E6000C9000143A6480160C02189000F20FFF787
:101E7000F1FCC02189000E20FFF7ECFC23E0A04814
:101E800000688021090101439D480160C02189004B
:101E90004320FFF7DFFCC02189004420FFF7DAFC74
:101EA00011E097480068802149010143944801608E
:101EB000C02189006220FFF7CDFCC021890063208A
:101EC000FFF7C8FCFFE7694610200856002800D03D
:101ED000ABE09D4800689D4901409B4801609A48DD
:101EE00000689B490143984801609A480078F321B3
:101EF0000140984801700020974908709748006891
:101F000097494843022100F087F902900420040019
:101F1000E4B2212C64DA0298E4B22100491C79432E
:101F200000F07DF90500ADB280208001854255DAD0
:101F30000298ADB2E4B22100491C694300F06FF988
:101F400001900198C01B012803DB01983900461A53
:101F500002E00198C01B4642B6B2002E05D1684689
:101F60000580E4B2684644803AE068468089B6B2AB
:101F7000864206D26846868168460580E4B2684695
:101F800044806D1CADB280208001854226DA029823
:101F9000ADB2E4B22100491C694300F040F9019060
:101FA0000198C01B012803DB01983900461A02E0A2
:101FB0000198C01B4642B6B2002E05D16846058086
:101FC000E4B2684644800BE068468089B6B2864237
:101FD00004D268460580E4B268464480641C97E7F2
:101FE0006D480078E02101400C006846008880B20E
:101FF000000AC006C00E2043674908706846008882
:102000006649087066480078E02101400C00684687
:102010004088C006C00E2043614908704D480078D2
:102020000C2101434B48017066E05E486A4610216E
:102030005156042251434058C178F3200840594971
:102040006B4610229A5604235A438958C8700021BF
:1020500054486B4610229A5604235A438058817084
:1020600051480068FA2189004843029002981021E3
:10207000794300F0D4F869460880684600888021DA
:102080008901884202DB49486946088045486A461A
:10209000102151560422514340580078E02101405C
:1020A0000C006846008880B2000AC106C90E2143B0
:1020B0003C486B4610229A5604235A4380580170BC
:1020C0006846018837486B4610229A5604235A43C3
:1020D0008058417033486A461021515604225143BA
:1020E0004058C1780C2008432E496B4610229A565E
:1020F00004235A438958C87005B0F0BDFFFF0000A3
:102100003480044000B5020052B2002A08D12848A9
:102110000078800615D5274800780870012011E066
:10212000204852B204235343C0580079800608D592
:102130001C4852B204235343C058C0790870012090
:1021400000E0002000BD000004800440FFFFFFF31A
:102150000000010403A0064002A00640AC1E0020BF
:1021600040420F0000B540B2002806D1104A127854
:102170001206FBD50F4A11700DE00A4A40B2042343
:102180004343D25812791206F7D5064A40B20423C7
:102190004343D258D17100BD00A0064001A00640C3
:1021A0000AA0064068E6FF1FB81E0020FF1F0000BF
:1021B00004A0064007A00640130030B41400150028
:1021C000103902D310393CC0FCD2490700D30CC0EF
:1021D00000D504C0890002D30280801C002900D5EC
:1021E000027030BC704700000022E5E7F44600288A
:1021F00004D4494200F013F84042604740420029AD
:1022000005D45FD000F00BF8404249426047494294
:1022100000F005F84942604703460B43E6D400222C
:10222000030A8B420BD203098B4219D243088B421B
:102230002ED2411A00D20146524110467047FF2269
:1022400009023FD012068B4205D3121209028B42BB
:1022500001D31212090203098B4219D300E0090AC3
:10226000C3098B4201D3CB01C01A524183098B426F
:1022700001D38B01C01A524143098B4201D34B0158
:10228000C01A524103098B4201D30B01C01A5241BB
:10229000C3088B4201D3CB00C01A524183088B4242
:1022A00001D38B00C01A524143088B4201D34B002B
:1022B000C01A5241884200D3401A5241CFD201463F
:1022C0001046704708B500F073FB08BD70B50400F8
:1022D0000D0016006DB2002D15D17248E4B2210038
:1022E00049110422514340586E49E4B22200521170
:1022F00004235A43895849690122E306DB0E9A40B8
:102300009143416142E06748E4B22100491104224F
:10231000514340586349E4B22200521104235A4306
:10232000895849690122E306DB0E9A400A4342615B
:10233000F6B2002E15D15B48E4B221004911042207
:102340005143405800680121E206D20E9140884373
:102350005449E4B22200521104235A4389580860B8
:1023600014E05048E4B2210049110422514340587E
:1023700001680120E206D20E904008434949E4B2C8
:102380002200521104235A438958086080214900D1
:102390002000C0B2FFF75EFA70BD38B504000D0032
:1023A0004048E4B221004911042251434058406999
:1023B000E106C90EC840C00703D469213A4800F0BD
:1023C000CDFAEDB2002D15D13648E4B22100491105
:1023D00004225143405800680121E206D20E914088
:1023E00088433049E4B22200521104235A438958E9
:1023F000086014E02B48E4B2210049110422514343
:10240000405801680120E206D20E90400843254959
:10241000E4B22200521104235A438958086031BDA6
:1024200010B504001F48E4B22100491104225143B1
:1024300040584069E106C90EC840C00703D4812155
:10244000194800F08BFA1748E4B221004911042220
:10245000514340580121E206D20E9140C16010BDA7
:1024600010B504000F48E4B2210049110422514381
:1024700040584069E106C90EC840C00703D5922103
:10248000094800F06BFA0748E4B221004911042220
:10249000514340580169E006C00EC1400800C00722
:1024A000C00F10BDFCE5FF1FF4730000010009D54B
:1024B000F446404200F006F80122D207114360477B
:1024C000010000BF42221201D21E004207D002D4F6
:1024D000521E0018FCD5C10A400512058918704724
:1024E000012252054B18DA4201D9581570475B0D8D
:1024F0000722D2019B1A10D9FF2B1DD2DB05012226
:10250000D2070A4013430903020D1143490AC200CE
:10251000524100D9491CC81870470AD1800A0A03E1
:1025200002435212921C04D9D3070B40D005184322
:102530007047C80FC0077047C80F0002FF30C005C2
:10254000704730B4012100220368001D002B0BD01E
:102550000468001D0C4202D04D466D1E64192260B5
:10256000241D1B1FF0D0FAE730BC70479D210200EC
:102570000AD5F446524200F007F80122D207104370
:10258000604700009D2102000AD002D4491E921823
:10259000FCD5C905100A1206524100D3012A484150
:1025A000704700000CB4012212060318DA4207D863
:1025B0004B18DA4204D802000A43921802D2884229
:1025C0000CBC7047FCD08142FAE700000CB4012239
:1025D00012060318DA4207D84B18DA4204D8020070
:1025E0000A43921802D281420CBC7047FCD0884248
:1025F0000CBC70470122D20703004B402ED4431A73
:1026000001D2C01AC91830B44B180418240E1B0E7E
:1026100022D0FF2C20D0E31A182B1DDC0902114315
:10262000C40D641E0002104394461925ED1A0A00D9
:10263000AA40D940451801D36D08A41CE405D2096D
:10264000280A2D062A436546AA41604103181B0E3D
:10265000FF2B01D3C00DC00530BC7047514006E0D0
:102660005140CCE70122D20703004B40F8D4431A73
:1026700003D2C01AC9185040514030B44B18090257
:1026800011430418240E1B0E40D0FF2C3AD0250015
:102690009D410BD31ED8C50D4002401A0BD3ED054A
:1026A0000100400AC90591416841D5E7C50D4002C6
:1026B0004918401AD0D001214008491C0018FCD507
:1026C0008C4204D36D1A000AED054019C4E7E805F1
:1026D0001040C1E7182DBFDCAC1C0D00E140E54106
:1026E0004D40012D4941C40D00021043451A01D44B
:1026F0006D199543641EE405280A2D069541604135
:1027000030BC7047FF2BA7D1D843A5E72442A3D103
:102710000020A1E730B405004D400122D20715404A
:102720004B180418240E30D01B0E34D0FF2C36D09A
:10273000FF2B3CD0E4180002090210431143000AA9
:10274000090A9446C2B24A43000AC3B24B43000A84
:102750004843110A5B18190A12061B0C1A43120A85
:10276000091801D44918641E080A7F3C23DBFE2C9B
:1027700008DAE4050906114363469941604128439C
:1027800030BC7047FF20C005F9E728001B0EFF2B67
:10279000F6D1D043F4E72800FF2CF1D1F9E740024D
:1027A000F7D1FF2B01D14902F3D1E005E7E7D805C6
:1027B0004902E4D0EDE743020020641CDFD15B1244
:1027C0009B1CDCD9D805DAE70122D2070118090ED3
:1027D0007F3910D449421F310FD4001805D2C001EF
:1027E0001043C84000D5D0437047C0011043C840D3
:1027F00005D440427047002070470042F3D51000D6
:1028000070470000944602000A43921808D088429C
:1028100006D1012212060018D042084600D8804294
:102820006246704730B405004D400122D207154082
:102830004B180418240E28D01B0E2FD0FF2C34D098
:10284000FF2B37D0E41A000209021043114343085A
:102850004808D10D1B1A02D2641EDB181B18DB18A6
:10286000834200D31B1A4941F9D37F3426DDFE2C65
:1028700008DAE4054808C907194391416041284333
:1028800030BC7047FF20C005F9E728001B0E03D0BD
:10289000FF2BF5D14902F3D0D043F1E7FF2C01D152
:1028A0004002F9D1FF20C005E9E74002F4D1FF2B37
:1028B000F8D1F1E728004902E2D0EDE70B02002051
:1028C0002442DCD15B129B1CD9D9D805D7E7000084
:1028D00038B504000D00002D03D124211B4800F061
:1028E0003DF81B4800688021090401431848016035
:1028F000002018490860681E174964B2102262431C
:102900008850154864B2102161434018C068012105
:102910000143114864B2102262438018C1600E481E
:1029200064B21021614340188068012188430A493C
:1029300064B210226243891888600320064964B299
:10294000102262438918886031BD00008C75000038
:102950003C800440007003400071034038B504001F
:102960000D002A0021000E4800F024F8FEE738B5DB
:1029700004000D00210049B20020FFF7F3FB200006
:1029800032BD704710B5074804680748E4B2092112
:1029900061434218E4B22100044800F00BF810BD76
:1029A0001477000004ED00E040E4FF1FB076000063
:1029B000704700000EB400B582B003A900916B46C9
:1029C00002000121034878440A3000F005F802991A
:1029D00006B00847D54D0000F1B5A2B014001F00A5
:1029E000049100200D900AE00498229A90470490E8
:1029F000002800D1CBE20D98401C0D90641C21787A
:102A0000002901D10D98C4E22529EDD100200790BD
:102A1000089009900A900B900C9002E001000120B0
:102A20000843641C21782029F8D023290ED02B29B3
:102A300004D02D2907D030290BD00DE00100022051
:102A4000084380B2EDE701000420F9E70100082007
:102A5000F6E701001020F3E72A290FD13968396021
:102A60000A68091D39600F92002A05D551420F915D
:102A700001000420084380B2641C12E000210F9181
:102A80000AE00F9A754B9A4205D093009A185200AB
:102A9000511830390F91641C21780A00303A0A2A03
:102AA000EFD321782E2903D00021C9430E911EE0D7
:102AB000641C21782A2907D1396839600A68091D00
:102AC00039600E92641C12E000210E910AE00E9A09
:102AD000624B9A4205D093009A185200511830392F
:102AE0000E91641C21780A00303A0A2AEFD302A919
:102AF00008872578290058487844FF305D3000F079
:102B0000E0FE002801D0641C00E0002502A83A3055
:102B1000057002A83A300078682804D12178682925
:102B200001D1622005E06C2807D120786C2804D1FF
:102B3000712002A93A310870641C12A80690257809
:102B4000641C280025382AD01C3800D1CFE0001F93
:102B5000022800D8CBE0133800D1EFE0093800D1CB
:102B6000C5E0801E00D157E1401E00D12BE1401E80
:102B7000022800D8BBE0001F00D124E1401F00D193
:102B800086E0401E00D1D9E0401E26D0C01E0BD0EA
:102B9000801E00D1D2E0C01E00D1CFE046E101206E
:102BA0000790252012A998E0386838600568001D54
:102BB000386005950E9E002E03D5280000F08BFE90
:102BC00009E032000021280000F08DFE002801D02D
:102BD000401B00E03000089034E13868386002683B
:102BE000001D38600020C0430021104002AA03C22B
:102BF00012A80590069B3C2502A803C8002904D111
:102C0000002802D10E9A002A14D06D1E01950207E9
:102C1000120F3032D2B23A2A00DB27325A5500095D
:102C20000A071043090901D1002803D0059A5E194B
:102C3000B242EAD33C20401B0890591905910E99E5
:102C400088420FDA081A0A9002A8008F044901404E
:102C500002A80187F6E000BF384B0000FFFFFF7FAE
:102C6000EFFF0000002900D4ECE002A93831097818
:102C700014220A40102A00D0E4E00F99079A891A1A
:102C80000A9A891A0D1A012D00DADBE00A95D9E0BB
:102C900002A83A300078622819D0682806D06A283D
:102CA0000CD06C281BD0712808D018E03868386028
:102CB0000168001D38600D980880C3E038683860EE
:102CC0000268001D38600D98C11703C2BAE0386869
:102CD00038600168001D38600D980870B2E03868EF
:102CE00038600168001D38600D980860AAE03A68F5
:102CF000D21D072082433A6003CA3A6002AA03C287
:102D0000002903D5012007902D200CE002A8008F98
:102D1000810703D5012007902B2004E0C00704D5CC
:102D200001200790202012A9087012A807994018C6
:102D30000590290002A800F0FBF983E002A83A30D0
:102D400002786C2A0BD0712A01D06A2A07D13B681D
:102D5000DB1D072083433B6003CB3B6005E0396804
:102D600039600868091D3960002102AB03C3682A75
:102D700003D102A803C880B20BE0622A03D102A8E3
:102D800003C8C0B205E0742A01D07A2A04D102A88F
:102D900003C8002102AA03C202A838300078000745
:102DA00031D502A803C8002901D100282BD020204A
:102DB0002843782827D1302012A9087002200790D4
:102DC00012A845701FE0390002A83A30007800F0E0
:102DD000E2F802AA03C202A8002904DA0798411CFB
:102DE00007912D210DE0008F810704D50798411C24
:102DF00007912B2105E0C00705D50798411C0791D5
:102E0000202112AA115412A80799401805902900F0
:102E100002A800F0F4F815E0012007903868386047
:102E20000168001D386012A801700BE001200790B6
:102E3000252012A90870002D04D00798411C079185
:102E400012A90D540F980799401A0A99401A089927
:102E5000401A0B99401A0999401A0C99401A01908E
:102E600002A838300078400711D420206946087045
:102E7000002509E001236A4602A9229800F009FD15
:102E8000002800D083E06D1C01988542F2DB079E8C
:102E900012AD0BE029780498229A904704900028FC
:102EA00075D00D98401C0D906D1C761E002EF1D132
:102EB0003020694608700A9E002508E001236A4612
:102EC00002A9229800F0E5FC002860D16D1CB542F3
:102ED000F4DB089E059D0BE029780498229A904720
:102EE0000490002853D00D98401C0D906D1C761E48
:102EF000002EF1D13020694608700B9E002508E0B5
:102F000001236A4602A9229800F0C3FC00283ED1A2
:102F10006D1CB542F4DB099E0598089945180BE035
:102F200029780498229A9047049000282FD00D9871
:102F3000401C0D906D1C761E002EF1D1302069468C
:102F400008700C9E002508E001236A4602A9229819
:102F500000F09FFC00281AD16D1CB542F4DB02A8DA
:102F600038300078400700D449E5202069460870D1
:102F7000002500E06D1C0198854200DB3FE5012340
:102F80006A4602A9229800F084FC0028F2D00020B2
:102F9000C04323B0F0BD0A00622822D0682819D0AF
:102FA0006A2808D06C2823D0712804D074281FD038
:102FB0007A2808D01CE01368DB1D072083431360C8
:102FC00003CB13607047116811600868091D116018
:102FD00000217047116811600868091D116000B276
:102FE0000BE0116811600868091D116040B204E02F
:102FF000116811600868091D1160C1177047F3B5A9
:1030000083B0006900906846027C6F2A01D10824D1
:1030100006E020211143782901D00A2400E0102481
:103020003C25039803C806000F00642A01D0692AD2
:1030300007D1002905DA00200021801BB9410600D4
:103040000F00002F12D1002E10D10398006B002822
:103050000CD1082C3CD1039838300078000737D5C4
:103060003B25302000993B31087031E06D1E019501
:10307000300039002200E31700F041FC3032D2B2B8
:103080003A2A03DB6846007C5138121800984255F2
:10309000300039002200E31700F031FC06000F0079
:1030A00001D1002E05D00398C068009949198842C3
:1030B000DCD3082C0CD1039838300078000707D5F2
:1030C0000098405D302803D06D1E3020009948558F
:1030D0003C20401B0399886100994919039AD160EB
:1030E0000399096B884209DA081A03990862039860
:1030F000008F0E4901400398018715E0002913D580
:1031000003993831097814220A40102A0CD1039906
:10311000496B039A5269891A039A126A891A0D1A1D
:10312000012D01DB0398056205B0F0BDEFFF000043
:10313000F3B591B006AD03C802AA03C212A8007885
:1031400020210143009161290BD01198006B0028C8
:1031500001D5062003E004D1672902D1012011998D
:103160000863119841684800400DAA4A904225D151
:10317000080310D11198006800280CD10320119980
:10318000886112A8007861381A2842D3234878440D
:103190008A3000900BE003201199886112A8007812
:1031A00061381A2831D31E487844743000900322C5
:1031B00000991198C06800F0D7FBF1E1012817DAF7
:1031C000119800F0FFFB012812DB00270026009871
:1031D000612832D11198C06830210170401C411C17
:1031E000119AD16012A9097861291FD178211EE0B6
:1031F00011994968884A0A4088491143119A5160D7
:103200008749461A0027FF43E1E70648784414300F
:10321000CCE7054878441030BBE700BF8845000084
:103220007C4500007445000078450000582101707D
:1032300011984069801C11994861002F03D1002426
:1032400068468780A2E10098612800D09FE011982D
:10325000046B002C01D5212400E0641C24B2601C06
:103260000090119803C804AA03C202A803C8002250
:10327000002300F0C9FB04A803C802D28022120672
:10328000514002AA03C2301F6946888000270F768A
:1032900006AE761C00E0F61D0098012830DB02A87F
:1032A00003C80022002300F0C8FB29D21C2102A879
:1032B00000F0DCFB02A803C800F066FC05000098E3
:1032C000C01F009001280ADB2800FFF7EFF802007A
:1032D0000B0002A803C800F0E3FC02AA03C2F61D1B
:1032E000072004E0761E2907090F31702D11012DEA
:1032F00001DB401EF6D5401ECDD4761E3770FAE7AE
:1033000006A8401C311A06AD6D1CA14200DA0C0063
:1033100024B2200032D4884205DA06A90918497877
:10332000082900DB0F2706A9091801E0641E491EC1
:10333000401E0A78BA42F9D00F2F04D106A9091805
:103340004A78521C4A70002806D506AD641C0198C4
:1033500000B2001D6946888024B2601E0ED4291870
:103360000A783032D2B23A2A03DB12AB1B783A3BEE
:10337000D2180A70401E491E0028F1D51198006B22
:10338000002800D402E1601E11990863FEE002A843
:1033900003C80022002300F037FB06D202A803C8AE
:1033A00080221206514002AA03C236B27D48704301
:1033B0007D49FEF731FF694688800720019909B2EF
:1033C000421A00207949012A20DB049202AA30CA5D
:1033D00000260F000498C00707D532003B002000EC
:1033E000290000F0D4FC04000D0004984010049063
:1033F0003000390032003B0000F0C9FC06000F002D
:1034000004980028E6D102A830C028E054420026E3
:10341000674F18E0FF070000FFFF0F800000E03F4C
:10342000FE030000E00707D504A803C832003B00F4
:1034300000F0ADFC06000F00641004A803C804AA45
:103440000CCA00F0A4FC04AA03C2002CEAD102A812
:1034500003C832003B0000F05CFD02AA03C20098E2
:10346000662803D1019800B20A3000E006201199C5
:10347000096B08180490142801DB132004903020F5
:103480006946087606AC641C049801283ADB02A859
:1034900003C800F08BFB05000834042628000A212D
:1034A000FEF7BDFE0F0028000A21FEF7B8FE05005A
:1034B000641E303727700A21FEF7B1FE0F00280086
:1034C0000A21FEF7ACFE0500641E30372770761E19
:1034D000E4D108340498083804900128D4DB02A809
:1034E00003C800F063FBFEF7EBFF02000B0002A82D
:1034F00003C800F0D5FB00222E4B00F048FC02AAC6
:1035000003C2C4E706A8401C201A06AD6D1C6A461B
:1035100005E0401E019909B2491E91806D1C297871
:103520003029F6D00099662903D1019909B2491CC6
:1035300004E0652901D1012100E00021119A126BFC
:10354000541824B2A04200DA040024B221001DD491
:10355000814204DA685C352801DB392000E0302044
:103560006A1800E0641E521E491E13788342F9D087
:10357000392802D1685C401C6854002906D56D1EAC
:10358000641C019800B2401C69468880019800B212
:10359000009023B22A0012A80178119800F00CF8CC
:1035A00013B0F0BD97750000A08601000000244014
:1035B0000000F03F84D79741F3B589B015001C0097
:1035C00000F021FD0190406A007869460872099870
:1035D000076B012C01DA0124ADA50AA8017820208F
:1035E0000843109E662801D1761C18E0672800D099
:1035F0009FE036B20321C9438E4200DA9DE0BE420D
:1036000000DB9AE0761C099838300078000702D475
:10361000BC4200DA270036B2BF1B00D5002709984C
:10362000C06800900998806900990918019136B224
:10363000012E2CDA401C3021019A1170012F04DA7E
:10364000099938310978090704D56946097A009A39
:103650001154401C099988617042874200DA7E4209
:1036600036B2704209994862BF19A74200DA3C009D
:1036700024B20998C461220029000098099B9B6923
:10368000C01800F071F9381B09998862E1E0B44272
:1036900020DA22002900019800F066F90999896969
:1036A0000919099A9161301B099A5062012F04DAB5
:1036B000099838300078000709D56846007A099AD9
:1036C000D26850540998C069401C0999C86109988A
:1036D0008762BEE032002900019800F045F90998A0
:1036E00080698019A41B012F04DA099938310978FF
:1036F000090705D56946097A099AD2681154401C10
:103700000999886124B2A74200DA3C0024B2220061
:10371000A9190998C068099B9B69C01800F024F991
:1037200009988069001909998861381B09994862CC
:103730008FE0612914D1702015E0BC4205DA0999A7
:1037400038310978090700D427007F1E00D50027EB
:103750000AA80078672801D1652004E0452002E02E
:10376000412902D150200AA9087009988169481C92
:10377000099AD26800922A78009B5A54691C012F3A
:1037800007DA099A38321278120702D40999886147
:103790001BE06A46127A009B1A54401C099A9061F9
:1037A000012F12DB641E24B2A74200DA3C0024B2CF
:1037B0002200009B181800F0D7F8099880690019BA
:1037C00009998861381B099948620998C068099964
:1037D000896945180AA8007828706D1C36B2300037
:1037E00003D42B2028706D1C03E02D2129706D1C43
:1037F0004642002405AF08E00A2203A800F01EFCA0
:1038000004983870039E641C7F1C31B20129F3DADE
:10381000022C08DA0AA8007820210143652902D188
:10382000302028706D1C002C09D1302028706D1CB0
:1038300007E0641E05A8005D303028706D1C012C67
:10384000F7DA0998C068099989694018281A09990E
:10385000C86109983830007814210140102914D12A
:10386000099840690999896940180999496A401875
:103870000999C96940180999896A40180999496BD9
:10388000884202DA081A099908620BB0F0BD0000FC
:10389000300079B50E0014001D00002005E0F06A2C
:1038A000401CF0620020641C6D1E002D08D02178A1
:1038B000B068009A9047B0600028F0D10020C04363
:1038C00076BDC9B200E0401C02788A4202D0002ACC
:1038D000F9D100207047010000E0491C0A78002A55
:1038E000FBD1081A7047C9B201E0401C521E002AE1
:1038F00003D003788B42F8D1704700207047124202
:1039000024D0994228D970B500251B4202D00C0062
:10391000002109E00024012649186441944200D3A3
:10392000A41A7641F8D33100012601E0764109D28C
:10393000001864416D41A41A9D41F7D2A4185D415D
:10394000B619F5D3300022002B0070BD1B42D8D130
:1039500008B500F083FB08BD01D19042D3D202002C
:103960000B00002100207047124207D08B0706D0C1
:103970000B78491C0370401C521EF7D87047830710
:1039800006D00B78491C0370401C521EF9D17047B9
:1039900070B4103A03D378C9103A78C0FBD25307F9
:1039A00001D318C918C001D508C908C0D20704D36B
:1039B0000B880380891C801C002A01D50B780370BA
:1039C00070BC704730B401004B68802212061A4068
:1039D00001201B031B0B4B600BD10B68002B08D184
:1039E0000DE00B686400DD0F25434D605B000B604C
:1039F000401E4C68E302F4D523031B0B4B604B685D
:103A00001A434A6030BC704730B4012464054D004D
:103A1000EC420BD85D00EC4208D80C001C4364005B
:103A20000443144304D2994200D1904230BC704701
:103A3000FCD08B42FAD18242F8E730B4012464050D
:103A40004D00EC420BD85D00EC4208D80C001C4342
:103A500064000443144304D28B4200D1824230BC40
:103A60007047FCD09942FAD19042F8E770B5040053
:103A70000D0060684000400D3F4EB04207D16068C5
:103A8000000302D12068002816D0022070BD002853
:103A900004D12000FFF796FF01286BDA012D0DDB22
:103AA000311A8D420AD36068002802D500203349BC
:103AB00001E00020310503C4012070BD4142A9424C
:103AC000616806DA2E4A0A40281800051043606033
:103AD00047E080221206114062681203120B802315
:103AE0005B0313436360401E2D1800202A0035320B
:103AF000352A02D36160206070BD00221E23DB43A3
:103B00009D4204DA20352268636823606060684261
:103B100011D0521E9241D243D20F20231B1A256886
:103B20009D402A432568C54066689E402E43266016
:103B30006368C34063606068084360601148824204
:103B400006D28020000682420ED12078C0070BD515
:103B50002068401C20602068002805D16068401C57
:103B600060600020C04370BD60688842F9D1206861
:103B70000028F6D1002070BDFF0700000000F0FF14
:103B8000FFFF0F8001000080F4464A1805D200F0C4
:103B90000FF801D580174008604700F009F80121AF
:103BA000C907884200D90800404260474A1812D22B
:103BB000400DC90208430121C9070843520D4021A5
:103BC0000901521A521C06D452421F3201D4D0406D
:103BD0007047C017704700207047F0B40125ED070B
:103BE0000F005F404FD48B4200D1824205D98446FA
:103BF000100062468C4619006346DF184C18640DAD
:103C00007F0D3AD0661C760537D0E61B352E34DCA6
:103C1000DB022B43DB0A0C0DC9022943C912202EFB
:103C20000DDB1700203E06D01F00F741F3405F4038
:103C30000026012A7741C01871410DD217E0170004
:103C4000F741F2405740F3415A40B340F3405A40E5
:103C50000026801859410AD3A21C52050FD0C20772
:103C6000012F724117004008CB0718434908641C14
:103C700024054208AF4170416141F0BC7047641CAB
:103C800021050020F9E76B4010E06B40ABE7F742FD
:103C9000F3D1E943F1E72442EFD100200021ECE722
:103CA000F0B40125ED070F005F40EED40C00871A39
:103CB0009C4105D2C01BA141D219634169406B40B0
:103CC000AE0ADF184C18F442E1D2640D7F0DE2D049
:103CD000E61B362ED1DCDB022B43DB0AA4460C0D9F
:103CE000C9022943C90A012E28DC04D1D60752088B
:103CF000DF073A435B08EF0A76429041994114D0BE
:103D000039423BD1B61940414941761C394204D170
:103D1000761C001849413942FAD0B9436746B74288
:103D200008D9A41B24052143A7E70042EAD1364263
:103D3000E8D1A2E7E40AE10700209EE7202E0BDD90
:103D4000203E1F00F340F7415F40012A0022574107
:103D50007E42984191410BE01700F741F2405740F5
:103D6000F3415A40B340F3405A407E42904199415A
:103D70000A0303D2641EB619404149410027641E5C
:103D800024054208AE4178416141F0BC7047F0B56E
:103D90000E005E400125ED072E40B446AE0ADF1846
:103DA0004C18F44208D2F7420ED2640D01D07F0DB8
:103DB00012D100206146F0BD05D1F74201D87F0D38
:103DC00005D10020C143F0BDFBD1640DF9D0002026
:103DD000C143490549088FE0E419C902DB022943C0
:103DE0002B43DB0A460DC00231438E4630B487B206
:103DF00095B27D432E0CADB2140C7C43A419260C55
:103E0000240425439CB27C43A419190C7943270C44
:103E1000C919A4B20F043C43090C000C97B24743E4
:103E20002E0CBE193543ADB2170C4743360CBF19E3
:103E3000A6B2BF193E043543240C3E0C36199FB27E
:103E40004743BF19BCB23E0C89191F0C47437F186A
:103E50003E043443390C704680B297B247432E0C6F
:103E6000BE193543ADB2170C4743360CBF19A6B285
:103E7000BF193E043543240C3E0C36199FB247430C
:103E8000BF19BCB23E0C89191F0C47437F183E0472
:103E90003443390C77463F0C90B278432E0C80198E
:103EA0000604ADB22E43050CA0B22D18120C7A43B5
:103EB0005019020C80B2240CA4189AB27A43121939
:103EC00014042043120C89181B0C7B43C91830BC06
:103ED000EF0A394203D1B61940414941641E6F12BD
:103EE000BF0DE41B0BDBFF19BC4211DA24050027D0
:103EF0004208AE417841614166463143F0BD641CE1
:103F000005D1401C6141CF0201D34908F4E750E7D5
:103F10005DE7F0B40E005E400125ED072E40B4468B
:103F2000AE0ADF184C18F4423BD2F74241D2640D7E
:103F300043D07F0D38D0E41BC902DB0229432B4359
:103F4000CF0ADB0A0600B61A9F4104D2641EB619D6
:103F50007F41B6185F416812800D24180018844212
:103F600022DAE80C0021B6197F41B61A9F4102D22D
:103F7000B6185F413F1C40414941F4D3241C21DD68
:103F80002405B6197F41B61A9F4105D33743C607AA
:103F900037430026012F7041614166463143F0BC32
:103FA0007047FCD1F74205D20020C14349054908BA
:103FB000F3E704D00020C143F1E77F0DFAD00020E1
:103FC0006146ECE72442FAD1401C61410F03F6D36D
:103FD0000020E2E780B5124800F041F811A101602D
:103FE00041608160C1600161416181610EA24262F4
:103FF0008162C162016341630CA282630DA2C2634C
:104000000164416401BD10B5054800F028F80400C2
:104010002068002801D1FFF7DDFF200010BD00005F
:10402000241F0020000000002E00000066616C7359
:104030006500000074727565000000007CB5040026
:104040000E00150030002900FEF7E6F80090454309
:10405000701B0190684603C803C476BD7047704763
:10406000F8B56220FEF7FCF9694608706320FEF798
:10407000F7F907006120FEF7F3F904005120FEF77D
:10408000EFF905004D20FEF7EBF9060068460078D1
:1040900000280CD120480078012801D100F002FD51
:1040A00002201D49087001201C4908700BE01A48C5
:1040B0000078022801D100F0F5FC012016490870B3
:1040C000002016490870FFB2002F03D101201449C7
:1040D000087002E0002012490870E4B2002C03D1FD
:1040E00001201049087002E000200E490870EDB26E
:1040F000002D03D101200C49087002E000200A497C
:104100000870F6B2002E03D101209A49087002E02F
:10411000002098490870F1BD34E4FF1F201F0020E3
:104120001C1F00201D1F00201E1F002080B592486C
:1041300000214056002838D1904A0021292000F063
:104140008DFE8F4A0221002000F088FE01200090A1
:104150008C48006801F068F802000B002B21022057
:1041600000F0B8FE884A0421002000F077FE01200C
:1041700000908648006801F057F802000B002B21E0
:10418000042000F0A7FE824A0621002000F066FE0F
:10419000002000907F480068FEF792F902000B00B3
:1041A0002B21062000F096FEE3E0734800214056E4
:1041B000012838D1784A0021292000F04FFE774AA3
:1041C0000221002000F04AFE002000907448007890
:1041D000FEF776F902000B002C21022000F07AFE97
:1041E000704A0421002000F039FE002000906E4843
:1041F0000078FEF765F902000B002D21042000F085
:1042000069FE6A4A0621002000F028FE0020009086
:1042100067480078FEF754F902000B002D210620B4
:1042200000F058FEA5E0544800214056022835D140
:10423000604A0021292000F011FE5F4A022100207F
:1042400000F00CFE002000905C48006800F0ECFFDD
:1042500002000B002C21022000F03CFE584A0421F1
:10426000002000F0FBFD012000905648006800F09F
:10427000DBFF02000B002C21042000F02BFE524A31
:104280000621002000F0EAFD012000904F480CC8F4
:1042900008382C21062000F01DFE6AE03648002177
:1042A0004056032824D14A4A0021292000F0D6FD97
:1042B000484A0221002000F0D1FD0120009046482C
:1042C0000CC808382B21022000F004FEC14A04214A
:1042D000002000F0C3FD01200090BF480068FEF7F9
:1042E000E5F802000B002B21042000F0F3FD40E074
:1042F00021480021405604283BD1B84A00210A2019
:1043000000F0ACFDB64A0221002000F0A7FD02201B
:104310000090B448006800F087FF49004908020097
:104320000B002B21022000F0D5FDAF4A0421002014
:1043300000F094FD02200090AC48006800F074FF8B
:104340004900490802000B002821042000F0C2FDAA
:10435000A74A0621002000F081FD01200090A54819
:104360000088FEF7ADF802000B002821062000F0BF
:10437000B1FD01BD1F1F00201B1F00208878000019
:10438000E07700001CE4FF1FEC77000020E4FF1F33
:10439000F877000038E4FF1F9078000004780000F0
:1043A00035E4FF1F1078000016E4FF1F9878000026
:1043B00017E4FF1FA07800001C78000078E6FF1FBC
:1043C0002878000088E6FF1F3478000080E6FF1F91
:1043D000A87800004078000090E6FF1F38B5002262
:1043E00001214A20FDF772FF002201214820FDF73C
:1043F0006DFF002201214620FDF768FF0122002108
:104400004420FDF763FF03214420FDF74BFA01220E
:1044100000214320FDF75AFF03214320FDF742FA14
:10442000012200214120FDF751FF03214120FDF72A
:1044300039FA4420FEF714F800280AD04320FEF78A
:104440000FF8002805D04120FEF70AF8002800D018
:10445000BCE06948006805214843FA218900FDF75E
:10446000DBFE00F0FBFE4420FDF7FAFF00280AD037
:104470004320FDF7F5FF002805D04120FDF7F0FFB0
:10448000002800D0A2E04120FDF7EAFF00280CD16F
:104490004320FDF7E5FF002807D04420FDF7E0FFAB
:1044A000002802D00120040022E04120FDF7D8FFBF
:1044B00000280CD04320FDF7D3FF002807D144206B
:1044C000FDF7CEFF002802D00220040010E04120BA
:1044D000FDF7C6FF00280BD04320FDF7C1FF0028E1
:1044E00006D04420FDF7BCFF002801D103200400C2
:1044F000012200214A20FDF7E9FE03214A20FDF7B1
:10450000D1F9012200214820FDF7E0FE03214820D7
:10451000FDF7C8F9012200214620FDF7D7FE03214F
:104520004620FDF7BFF9002201214420FDF7CEFE11
:10453000002201214320FDF7C9FE00220121412074
:10454000FDF7C4FE4620FDF78BFF00280CD1482064
:10455000FDF786FF002807D04A20FDF781FF0028DD
:1045600002D00A20050022E04620FDF779FF00284E
:104570000CD04820FDF774FF002807D14A20FDF732
:104580006FFF002802D01420050010E04620FDF740
:1045900067FF00280BD04820FDF762FF002806D0F7
:1045A0004A20FDF75DFF002801D11E2005004A20AA
:1045B000FDF756FF0028FAD04820FDF751FF0028EC
:1045C000F5D04620FDF74CFF0028F0D06019C0B2AE
:1045D00032BD00004C78000030E4FF1FD0770000AF
:1045E00058780000CCE7FF1FB0780000DCE7FF1F21
:1045F0006478000024E4FF1FB01E002080B5FFF7A0
:10460000EDFE0B2815D00C2844D00D2873D01528AA
:104610007BD0162800D1ADE0172800D1DFE01F289D
:1046200000D1DFE0202800D116E1212800D14DE1A2
:104630005CE1AF4800214056002805D1C848006819
:104640000A38C749086024E0A948002140560128DB
:1046500005D1BF480078401EBD49087019E0A44844
:104660000021405602280AD1BC480CC80838002056
:10467000B049FFF7B2FAB94A03C2083A09E09C48C8
:1046800000214056042804D19A4800880A389949E4
:1046900008802BE1964800214056002805D1B048FB
:1046A00000680A30AE49086024E091480021405675
:1046B000012805D1A6480078401CA549087019E0DA
:1046C0008B480021405602280AD1A4480CC808385B
:1046D0000020A049FFF781FAA04A03C2083A09E086
:1046E000834800214056042804D182480088401D98
:1046F00080490880FAE080480078012804D1012030
:104700007E49086000F0FBF9F0E07948002140564E
:10471000002807D17E4801687948FDF76BFF7C4986
:10472000086026E0724800214056012805D17948EA
:104730000078401E774908701BE06D480021405604
:1047400002280CD17648006800F06EFD6DA20CCAFC
:10475000FFF743FAFDF7C4FE7149086009E06448B9
:1047600000214056032804D16E48006864386D4922
:104770000860BBE05E4800214056002807D164482D
:1047800001686248FDF736FF6149086026E0584835
:1047900000214056012805D15E480078401C5D4943
:1047A00008701BE052480021405602280CD15C489A
:1047B000006800F039FD58A20CCAFFF70EFAFDF7A9
:1047C0008FFE5749086009E04948002140560328F8
:1047D00004D15448006864305249086086E000F013
:1047E0008EF983E042480021405600280CD15448FD
:1047F000006800F019FD4CA20CCAFFF7EEF9FDF7B6
:104800006FFE4F49086026E03948002140560128D4
:1048100005D14C480078401F4A4908701BE03448D5
:1048200000214056022807D1484801684048FDF75A
:10483000E1FE464908600EE02D480021405603285D
:1048400009D145480CC8083800203A49FFF7C5F996
:10485000414A03C2083A49E0254800214056002851
:104860000CD13748006800F0DFFC33A20CCAFFF718
:10487000B4F9FDF735FE3249086026E01C480021F6
:104880004056012805D12F480078401D2D49087059
:104890001BE0174800214056022807D12B48016829
:1048A0002948FDF7A7FE294908600EE010480021BD
:1048B0004056032809D128480CC80838002025494B
:1048C000FFF78BF9244A03C2083A0FE00848007842
:1048D000401C0749087000F0E5F8054800214056E3
:1048E000052802DB002002490870FFE701BD00BF78
:1048F0001B1F002024E4FF1F3CE4FF1F10E8FF1FE4
:104900000000A0C09A9999999999C9BF0000A04048
:1049100020E4FF1F16E4FF1F9A9999999999B93FCE
:1049200088E6FF1F30E4FF1F9A9999999999B9BFBA
:10493000000020C10000F0BF9A9999999999C93F48
:104940001CE4FF1F35E4FF1F0000204178E6FF1F35
:1049500017E4FF1F0000F03F90E6FF1F80E6FF1FF7
:1049600038E4FF1F00B50821AC4A12680423134342
:10497000AA4A1360AA4A1268AA4B1340A84A1360B5
:104980000A00511ED2B2002A1FD0020607D5A44A3F
:10499000126880235B041343A14A136005E0A04A18
:1049A0001268A14B13409E4A13609D4A12688023EF
:1049B000DB0513439A4A136000BF994A1268994B6A
:1049C0001340974A13604000DAE700BD00B50821A4
:1049D000924A126804239A43904B1A60904A1268D4
:1049E000904B13408E4A13600A00511ED2B2002A27
:1049F0001FD0020607D58A4A126880235B0413433E
:104A0000874A136005E0864A1268874B1340844A40
:104A10001360834A12688023DB051343804A1360C6
:104A200000BF7F4A12687F4B13407D4A13604000ED
:104A3000DAE700BD38B505000C0020005038C0B2E0
:104A4000FFF7C4FF2900C9B2090910200843C0B20A
:104A5000FFF7BCFF2907090F01200843C0B2FFF789
:104A6000B5FF31BD70B5040000200500EDB2082D82
:104A700017DA28005038C0B2FFF7A8FF0120FFF76F
:104A8000A5FF1020FFF7A2FF00200600F6B2802E3F
:104A900005DA2000C0B2FFF765FF761CF6E76D1C53
:104AA000E4E770BD38B500200400E4B2082C16DA43
:104AB00020005038C0B2FFF789FF0120FFF786FFC2
:104AC0001020FFF783FF00200500EDB2802D04DAEF
:104AD0000020FFF747FF6D1CF7E7641CE5E731BDD9
:104AE00000B580B2002809D0FA22920111000A0014
:104AF000511E92B2002AFAD1401EF2E700BD80B5E5
:104B0000012201219E20FDF7E1FB012201219820D5
:104B1000FDF7DCFB012201210220FDF7D7FB00227B
:104B200001219920FDF7D2FB3D4800688021C9058D
:104B300001433B4801603A480068102188433849E6
:104B40000860374800687B490140354801603220E1
:104B5000FFF7C6FF324800688021890401433048CE
:104B60000160AE20FFF732FF0020FFF72FFF10207B
:104B7000FFF72CFF4020FFF729FF8120FFF726FFDA
:104B8000CF20FFF723FFA120FFF720FFC820FFF76A
:104B90001DFFA620FFF71AFFA820FFF717FF3F20F1
:104BA000FFF714FFD320FFF711FF0020FFF70EFFE0
:104BB000D520FFF70BFF8020FFF708FFD920FFF774
:104BC00005FFF120FFF702FFDA20FFF7FFFE1220BA
:104BD000FFF7FCFEDB20FFF7F9FE4020FFF7F6FEB3
:104BE0002020FFF7F3FE0220FFF7F0FE8D20FFF7F5
:104BF000EDFE1420FFF7EAFEA420FFF7E7FEA62053
:104C0000FFF7E4FEAF20FFF7E1FE0020FFF72AFFE9
:104C100000210020FFF70EFF01BD000000F00FF89B
:104C200000F10FF8FFFFFFBFFFFFFFFEF4B582B0FA
:104C300004000F0000206946087000250026029835
:104C4000F6B2805D002825D068460299F6B2895DEB
:104C500020390170E4B27F2C02DB002004007F1CAD
:104C60003900C9B22000C0B2FFF7E4FE0020050001
:104C7000EDB2062D0BDA78486946097806225143D1
:104C80004018EDB2405DFFF76DFE6D1CF0E7A41D0E
:104C9000761CD4E7F7BDF4B582B004000E00002006
:104CA00069460870002500270298FFB2C05D002801
:104CB0003ED068460299FFB2C95D20390170E4B266
:104CC000792C02DB00200400761C3100C9B22000E0
:104CD000C0B2FFF7AFFE00200500EDB2082D0BDAE1
:104CE00079486946097810225143EDB24919405C70
:104CF000FFF738FE6D1CF0E73100491CC9B22000F7
:104D0000C0B2FFF797FE00200500EDB2082D0CDAC7
:104D10006D486946097810225143EDB2491940188F
:104D2000007AFFF71FFE6D1CEFE708347F1CBBE71E
:104D3000F7BD0000FFFFFFFDF5B581B00F000024B7
:104D4000002601250298F6B2805D002800D182E09D
:104D500000200400012005005C48E4B2005D8028CA
:104D600018DB5A48E4B2005D0299F6B2895D8842C8
:104D70000ED15648E4B2001940780299F6B289196A
:104D80004978884204D1E4B20E206043050001E076
:104D9000A41CE1E768460079772803DB0020694618
:104DA00008717F1C3900C9B268460079FFF742FEDE
:104DB000ADB2012D26D03900C9B268460079FFF79F
:104DC00039FE00200400E4B20E2C07DA4048ADB2F0
:104DD000405DFFF7C7FD6D1C641CF4E73900491CFA
:104DE000C9B268460079FFF725FE00200400E4B24E
:104DF0000E2C29DA3648ADB2405DFFF7B3FD6D1CCD
:104E0000641CF4E7761C3900C9B268460079FFF7E4
:104E100011FE00200400E4B2102C04DA0020FFF799
:104E2000A1FD641CF7E73900491CC9B26846007946
:104E3000FFF700FE00200400E4B2102C04DA00208A
:104E4000FFF790FD641CF7E76846694609790E3163
:104E50000171B61C76E7F7BD28700000F8B50500B3
:104E60000F0016000024E4B2305D00282AD0E4B21E
:104E7000305D802815DBE4B2305D69460870E4B22D
:104E800030194078694648700020694688706A4643
:104E90003900C9B22800C0B2FFF74EFF0E35A41C7E
:104EA000E1E7E4B2305D6946087000206946487069
:104EB0006A463900C9B22800C0B2FFF7ECFE0835D7
:104EC000641CD0E7F1BD0000A4520000547600003D
:104ED00094580000F3B581B00CB486B00125684643
:104EE0000C21FDF781F9012400260020002104AAED
:104EF00003C2083A00270AA80AA9097808225143E0
:104F0000017006A803C8FEF73FFE0600B6B23000E7
:104F1000FDF7D6FA02000B0006A803C8FEF7C0FE94
:104F200004AA03C2083A04A803C80022754BFEF77E
:104F30002EFFFEF729FE0700B6B230000A21FDF76A
:104F40006BF92100FDF768F9002803D00A204443DB
:104F50006D1CF1E7B6B230006B49FDF75DF90A212F
:104F6000FDF75AF968460170B6B23000FA2189009F
:104F7000FDF752F90A21FDF74FF968464170B6B2C4
:104F800030006421FDF748F90A21FDF745F968462C
:104F90008170B6B230000A21FDF73EF90A21FDF713
:104FA0003BF96846C170B6B230000121FDF734F913
:104FB0000A21FDF731F9684601712E2069464871D2
:104FC000BFB23800FA218900FDF726F90A21FDF762
:104FD00023F968468171BFB238006421FDF71CF9DE
:104FE0000A21FDF719F96846C171BFB238000A21DC
:104FF000FDF712F90A21FDF70FF968460172BFB2F9
:1050000038000A21FDF708F9684641720020694618
:1050100010AA127889188871002004000A2C06DA78
:105020006846005D303069460855641CF6E72E205E
:10503000694648710020694610AA1278891888715B
:105040006846EDB2421B521D09A801780AA80078F3
:10505000FFF704FF0BB0F0BDF2B582B005001600FB
:105060001F00002468460021002206C008380820DE
:105070004543B6B230002449FDF7CEF80A21FDF7CA
:10508000CBF868460170B6B23000FA218900FDF70E
:10509000C3F80A21FDF7C0F868464170B6B2300087
:1050A0006421FDF7B9F80A21FDF7B6F8684681706A
:1050B000B6B230000A21FDF7AFF80A21FDF7ACF8CF
:1050C0006846C170B6B230000A21FDF7A5F86846FF
:1050D000017100200400E4B2052C08DA6846E4B24D
:1050E000005D30306946E4B20855641CF3E7684659
:1050F000FFB2C21B521D6846017A2800C0B2FFF7FA
:1051000095FDF7BD0088C34010270000F2B50600EA
:10511000444A00210420FFF789FD022368460288E3
:1051200000212B20FFF798FF01200500EDB2072D8D
:1051300077DA2900C9B20020FFF77CFC00200400C8
:10514000E4B2802C6BDAEDB2802080006843301826
:10515000E4B20019C021C900405CEDB28021890091
:1051600069437118E4B20919C022D200895C022295
:1051700051434018EDB28021890069437118E4B2AF
:105180000919D022D200895C042251434018EDB2A3
:105190008021890069437118E4B20919D022D20034
:1051A000895C082251434018EDB28021890069438F
:1051B0007118E4B20919E022D200895C102251432F
:1051C0004018EDB28021890069437118E4B20919D1
:1051D000E022D200895C202251434018EDB28021A8
:1051E000890069437118E4B20919F022D200895C80
:1051F000402251434018EDB2802189006943711863
:10520000E4B20919F022D200895C8022514340188F
:1052100007003800C0B2FFF7A5FB641C90E76D1CC7
:1052200084E7F1BD70780000012212060118CA421D
:105230000AD28A420DD83822120609098918C20FEB
:10524000D20711434007704700D0490809090143BC
:1052500001E0C10FC90700207047000010B504002D
:10526000002C16D080204004844203D32921094811
:10527000FDF774FB0020084908600848046000201E
:105280000749086005200449086003480068C00316
:10529000FBD510BD5C74000010E000E014E000E0FD
:1052A00018E000E000000000000000000000000026
:1052B00000000000000000F80000000000000033C3
:1052C0003000000000100C06100C0600000000006A
:1052D0000000000040C07840C0784000043F040453
:1052E0003F040400007088FC08300000001820FF14
:1052F000211E0000F008F000E018000000211C034F
:105300001E211E0000F00888700000001E212324CA
:105310001927211010160E000000000000000000E8
:1053200000000000000000E0180402000000000778
:105330001820400000020418E0000000004020187F
:1053400007000000404080F0804040000202010F52
:1053500001020200000000F0000000000101011F36
:1053600001010100000000000000000080B070009A
:10537000000000000000000000000000000101012A
:1053800001010101000000000000000000303000B9
:105390000000000000000000806018040060180693
:1053A0000100000000E010080810E000000F1020CD
:1053B00020100F00001010F8000000000020203F17
:1053C00020200000007008080888700000302824A1
:1053D0002221300000300888884830000018202042
:1053E00020110E000000C02010F800000007042467
:1053F000243F240000F808888808080000192120AC
:1054000020110E0000E0108888180000000F112005
:1054100020110E0000380808C83808000000003FBE
:10542000000000000070880808887000001C22211D
:1054300021221C0000E010080810E00000003122CA
:1054400022110F00000000C0C0000000000000306A
:1054500030000000000000800000000000008060BC
:10546000000000000000804020100800000102043D
:105470000810200040404040404040000404040424
:1054800004040400000810204080000000201008E0
:1054900004020100007048080808F0000000003015
:1054A00036010000C030C828E810E00007182724A3
:1054B00023140B000000C038E0000000203C230251
:1054C0000227382008F8888888700000203F2020B4
:1054D00020110E00C03008080808380007182020E6
:1054E0002010080008F808080810E000203F2020DD
:1054F00020100F0008F88888E8081000203F2020BE
:105500002320180008F88888E8081000203F2000B1
:1055100003000000C03008080838000007182020E9
:10552000221E020008F808000008F808203F2101A8
:1055300001213F20000808F8080800000020203F53
:105540002020000000000808F8080800C0808080C3
:105550007F00000008F888C028180800203F2001BC
:105560002638200008F8080000000000203F202016
:105570002020300008F8F800F8F80800203F003F2D
:10558000003F200008F830C00008F808203F200045
:1055900007183F00E01008080810E0000F10202056
:1055A00020100F0008F808080808F000203F21012B
:1055B00001010000E01008080810E0000F18242482
:1055C00038504F0008F8888888887000203F2000F5
:1055D000030C3020007088080808380000382021AB
:1055E00021221C00180808F8080818000000203FB5
:1055F0002000000008F808000008F808001F20201C
:1056000020201F000878880000C8380800000738EC
:105610000E010000F80800F80008F800033C07003D
:10562000073C0300081868808068180820302C03A5
:10563000032C30200838C800C83808000000203F7C
:105640002000000010080808C8380800203826216B
:1056500020201800000000FE020202000000007F6F
:1056600040404000000C30C000000000000000017D
:105670000638C00000020202FE0000000040404068
:105680007F0000000000040202020400000000008D
:10569000000000000000000000000000808080800A
:1056A00080808080000202040000000000000000F2
:1056B000000000000000808080800000001924228B
:1056C00022223F2008F8008080000000003F1120C7
:1056D00020110E000000008080800000000E1120CC
:1056E00020201100000000808088F800000E1120AA
:1056F00020103F200000808080800000001F2222B8
:1057000022221300008080F0888888180020203F23
:10571000202000000000808080808000006B949436
:105720009493600008F8008080800000203F2100F2
:1057300000203F2000809898000000000020203FBB
:1057400020200000000000809898000000C08080A9
:10575000807F000008F8000080808000203F240245
:105760002D302000000808F8000000000020203F35
:10577000202000008080808080808000203F2000EA
:105780003F20003F8080008080800000203F21007B
:1057900000203F200000808080800000001F20202B
:1057A00020201F00808000808000000080FFA1205A
:1057B00020110E000000008080808000000E11206B
:1057C00020A0FF80808080008080800020203F21FA
:1057D00020000100000080808080800000332424AD
:1057E00024241900008080E0808000000000001F59
:1057F000202000008080000000808000001F20200A
:1058000020103F20808080000080808000010E30CA
:105810000806010080800080008080800F300C032B
:105820000C300F0000808000808080000020312E2E
:105830000E312000808080000080808080818E700A
:105840001806010000808080808080000021302CBC
:105850002221300000000000807C020200000000D5
:10586000003F404000000000FF000000000000007A
:10587000FF0000000002027C800000000040403F6A
:105880000000000000060101020204040000000004
:105890000000000000FC0404E625242424E40404A1
:1058A000FC00003F000003020202020320203F0030
:1058B0001012141810101F10101814F200001011FC
:1058C0001111111111111111113F000004F49596DD
:1058D0009494F404E40605F40400003F0404242432
:1058E0003F000720203F00004042CC0004F4949485
:1058F000FF9494F4040020100F10282422213F214B
:10590000222428000000FC14147C555654547C14A6
:105910001400201807202113150909151321200050
:10592000080808C8B88F888888888888080008040C
:1059300023202020203F202020202000080888C885
:10594000B88F88888888880808000201003F1010F6
:10595000101010103F000000645CE744440024A4D1
:10596000742F2424240004043F02020001010911C1
:105970002905030040445455D6745C54565554448C
:105980004000080422212222223E2222222020003E
:105990004042CC008888FF888888FF8888002010D3
:1059A0000F102028272020202F202000000000009A
:1059B00081661860800000000000201008060100C9
:1059C00000000106081020001011F60000FE4252EF
:1059D0007E525242FE0000000F04221F000F0909F0
:1059E0002F203F002021E6000848C84808FF08098A
:1059F0000A0000001F0814101F0808010E103C00C8
:105A000008C8FF4880F45F5454545FF40400010058
:105A10003F002425150D070D15252400084848C80A
:105A200048480808FF08090A08001010101F080855
:105A30000800010608103C0000244484641C20185F
:105A40000FE80828180010080601030C20100C03AA
:105A50000C1020004042CC00FC040200FC040404B2
:105A6000FC0020100F10272221203F20222223009B
:105A7000808494A48484FF8484A49484800010107F
:105A8000080402013F0102040810100022322AE635
:105A9000222A7200F80000FF00001111111F0909ED
:105AA00009000320203F00001008FC57545455FE05
:105AB000545454540400242417150D053F050D15A6
:105AC000152525004044545556547C54565554448D
:105AD0004000202212120A0603060A121222200097
:105AE0001010101010D03FD01010101010002020F7
:105AF0001008060100010608102020003808494A55
:105B000048494A48CC4A09083800020202022222C7
:105B10003F030202020202002010FC03083CAA6BB1
:105B2000BA2E2A38800000003F0010150A25221FD7
:105B3000060910002022AAEAAAAABFAA6A2A2A22D3
:105B4000200020120A0222233E02020A132600002D
:105B50000000E020203F24242424E4040000201836
:105B600003020A32020A32020308300040404F4961
:105B7000C949494949494F40400000000203020217
:105B8000020222221E0000008884A3A6AAA2F8A472
:105B9000A3A2A68A82000002020A120222223F0267
:105BA000020200008844E219202424243F24E42433
:105BB000200000003F000105090121213F010100F3
:105BC000403800FF201802020202FE0202002010EC
:105BD0000C030418000020203F0000001010FF10EC
:105BE00004844FA494A44F84040008080704013ED1
:105BF00012121212123E01002010FC0304545455DC
:105C000056545454040000003F00003F111111117C
:105C1000113F000040404F49C949494949494F4057
:105C20004000000002030202020222221E000000C5
:105C3000404141FF4141414141FF4141400020106D
:105C40000C0300000000003F0000000088780F08EF
:105C5000F820302C23202830600020110A0619007B
:105C60003F111111113F000000FE2020202000FFF5
:105C7000402010080000003F10080400001F2020F2
:105C8000202038008682AAAAFEAAABAAFEAAAA826F
:105C9000860004242E2312120A1212232E0404005A
:105CA000003E20202020FF202020203E00001F104A
:105CB000101010101F10101010103F0000181610B8
:105CC000D0B89790909092141000080422212013CD
:105CD0001408141221202000000000FEFE00000025
:105CE0000000000000000000001919000000000082
:105CF0000000000040C05F5555D5555555555F40D3
:105D00004000101F15150D3F08231509152320000D
:105D1000044444444444FF444444444404001010B4
:105D2000080402013F0102040810100002F21212DE
:105D3000121AD612121212F20200202710100804B2
:105D4000030808081017200098543318042424244A
:105D50003F242424040011110909003F11111111DD
:105D6000113F000004E424242424FF24242424E4F8
:105D700004001011090503013F010305091110007A
:105D80000121C206D20E9140794A1160704770B469
:105D9000784C40B2102545436419A56880246404FA
:105DA0002C43744D40B210264643AD19AC601C0222
:105DB000240A704D40B210264643AD19AC606D4CBC
:105DC00040B21025454361516A4C40B2102545430D
:105DD00064196260684C247880252543664C2570E0
:105DE000644C40B2102545436419E5688024E405FD
:105DF0002C43604D40B210264643AD19EC6070BC98
:105E0000704780B5002069460880684600883028C1
:105E100005DA68460088401C69460880F5E701BD40
:105E200010B500240120040054480068E040C00779
:105E300010D5524800680121A14001434F4801603C
:105E400000204F49088000204E4908704E49062026
:105E5000FBF700FD0620040048480068E040C0074A
:105E600006D5464800680121A1400143434801602E
:105E700043480088401C424908804448006880210B
:105E800049040143414801603D4800880A21FCF76C
