:10000000F85F002011040000611F0000611F000064
:10001000611F0000611F0000611F0000611F0000E0
:10002000611F0000611F0000611F0000611F0000D0
:10003000611F0000611F0000611F0000611F0000C0
:10004000611F0000611F0000611F0000611F0000B0
:10040000FFFFFFFFFFFFFFFFFFFFFFFFFEFFFFFFFD
:1004100062B601F013FBFEE791480178012900D094
:100420007047F8B5002404708E48802109060160E9
:100430004908016000F061F88B4D00F01DF900F0F3
:100440004BFA286000F076FA02000121022000F049
:1004500029FB8648007800284AD0002000F063FB82
:10046000B24E834D31686918E12212018C547168D3
:10047000691878328C54B168691878328C54F168F4
:10048000691878328C543169691878328C547169E2
:10049000691878328C54B169691878328C54F169D2
:1004A000691878328C54316A691878328C54706AC1
:1004B0002818704944540021C943002000F02AFC48
:1004C00096246401FE272878FF2800D12F70297810
:1004D00049B2002000F01EFC6D1C641EF3D1002107
:1004E000C943002000F016FC2821300000F05CFC1D
:1004F0008020C005BE490860F1BDF8B572B600F0B5
:1005000083F98B4C002222608A4B1A608A480021B2
:10051000405E1425142800DB050088494E19884FD9
:10052000F619B778012F0DD17778002F0AD1F77817
:10053000012F0BD13678002E08D1824E756201252D
:10054000256006E002267F4F7E6222606D1E032D2D
:10055000E3DA652800DB64200C18A64D6419657881
:10056000012D0DD1A578002D0AD12578012D0BD1B3
:10057000E478002C08D1A04A50620120186006E0FF
:1005800075249D4D6C621A60401C7528E4DB9B4805
:100590009B4A9C4B0093CC4BC918092345680A35EC
:1005A000752D03DB742501E004606D1E4468260090
:1005B0000A3E042E00DB0326AE420FDA4E5D012E0A
:1005C000F2D14E19B61E7778002FEDD14C19647810
:1005D000012CEAD13478002CE7D1056054680A3C3C
:1005E000032C03DA032401E01560641C55682E0017
:1005F0000A36752E00DB7426B44210DA0E5D012E29
:10060000F2D10E19761C3778002FEDD10D196D1E21
:100610002D78012DE9D17578002DE6D1146014688C
:1006200005686419E50F2C196410009D2C60783959
:10063000009C241F0094121F001F5B1EAED162B6E7
:10064000F1BD38B500249D4D78212001001BC0006C
:10065000281800F0A7FB641C282CF5DB31BD000036
:10066000DB0A002080E100E014E4FF1FDE0A002026
:10067000A8E4FF1F48120000F0B583B000F064F852
:1006800000252A4C26000327B06800F025F90190C8
:10069000706800F021F90090306800F01DF9010049
:1006A000280000F083FB009900F080FB019900F026
:1006B0007DFB05000C367F1EE6D100F007FC002212
:1006C000704B00F01CFC06000F008148006800F031
:1006D00077FC6DA20CCA00F08BFC32003B0000F0EE
:1006E00049FD00F01BFE6A4908606A4900F05EFBA4
:1006F0000500694805602068616A401A00F0ECF85E
:100700006649096800F03BFE654908606548006875
:10071000290000F034FE0100634800F07FFB6B49C4
:10072000086000F087FE00B203B0F0BD7C0A002034
:10073000A40A0020A80A002012E4FF1F68F7FF1F88
:10074000461200002C0A0020F0B583B0002400946B
:10075000019400250026554F300000F0BDF801003F
:10076000009800F023FB00903000704300F0B4F8D4
:10077000210000F01BFB04003868029000F0ACF888
:100780000100019800F012FB01900298704300F004
:10079000A3F8290000F00AFB0500761C3F1D092E76
:1007A000DADB434E310000F0EAFD050000990198C4
:1007B00000F0E5FD0100280000F030FB05002000FE
:1007C000310000F0DCFD04000099084600F0D7FD80
:1007D0000100200000F022FB0100280000F047FE8D
:1007E00000F028FE1E383A49086003B0F0BD000052
:1007F00000E100E047120000540A00204C0A0020EB
:10080000740A00209C0A0020F0B484B000200190FB
:100810000021304A1268274B1B786C462373264B05
:1008200000240D016D1AED000095244D009EAD19B8
:100830000295234D009EAD192D196E46367B029F01
:100840003F5DBE4205D201262E701D686D1C1D60E5
:1008500000E02870641C782CEBDB1C68772C186097
:1008600000D1521C491C2829DADB032A01DB0121B3
:1008700001910199134A11601649086004B0F0BC57
:1008800070470000000022409A9999999999C93FB0
:10089000280A002000006CC2B80A002018E4FF1FDC
:1008A000BC0A00201CE4FF1F00406C447C0A0020AE
:1008B0000000A04010E4FF1FAC0A0020A8E4FF1FC6
:1008C00068F7FF1FB40A0020D011000014E4FF1FD6
:1008D0009CE4FF1FB00A00209D21020008D5F446C9
:1008E000524200F005F80122D20710436047000091
:1008F0000AD002D4491E9218FCD5C905100A120666
:10090000524100D3012A4841704730B401210022EE
:100910000368001D002B0BD00468001D0C4202D0A0
:100920004D466D1E64192260241D1B1FF0D0FAE78E
:1009300030BC704700180ED2010E7F390BD44942EB
:100940001F3105D4C0010122D2071043C8407047AF
:100950000020401E704700207047000080B500282E
:1009600003D002283CD028D301BD59480268802317
:100970005B041343036005290AD801A0405C874447
:100980000410182028308021C900602000F0C4FD28
:1009900001BD8021C9006120F8E78021C9006220E3
:1009A000F4E78021C9006320F0E7C02189009F207F
:1009B000ECE7C02189009A20E8E7454802688023D7
:1009C0009B0413430360002902D0012904D001BD18
:1009D000C02189000C20D9E7C02189000D20D5E76E
:1009E0003B4802688023DB0413430360002902D0E4
:1009F000012904D001BDC02189000120C6E7C02122
:100A000089000220C2E7FEB582B0040069460820D2
:100A100009562000FFF7A2FF2E4800682E494843E0
:100A20004710380C039900F0CEFD80B20025002657
:100A300000E0761C0100F1400129FADAF7403800A5
:100A4000039900F0C0FD87B2022C07D80498791CE6
:100A50004843224900F0B7FD694608802048A100BC
:100A600040586A4608215156C9004118CA680423F3
:100A70009A43CA602822CA601A4A13681A4C1C405A
:100A800014601368802464041C4314607207520FBE
:100A900008231343036087606A4612880A61456031
:100AA00005B0F0BD30B503000C0010000C4A9D00ED
:100AB0005559AA68002AFCD0022B05D8521C504375
:100AC000064900F080FD0100E0002818016130BDFA
:100AD0003C800440C40A002040420F001027000060
:100AE00080E4FF1F04800440FFFFFFFC10B5184C9A
:100AF000042803DA01220121205C11E001220121F6
:100B0000E07800F0B7FD01220121A07800F0B2FDED
:100B100001220121607800F0ADFD01220121207841
:100B200000F0A8FD10BD10B5094C042801DA205CC6
:100B300009E0E07800F0BCFDA07800F0B9FD607835
:100B400000F0B6FD207800F0B3FD10BD00000000FD
:100B500098E4FF1FF2B584B005006C480290002DA8
:100B600003D0022D4BD010D358E06948016B020D21
:100B70000A430263C026B60031000F2000F0CCFC0F
:100B800031000E2000F0C8FC4AE06148016BC20C45
:100B90000A430263C026B6003100432000F0BCFCCB
:100BA0003100442000F0B8FC6448A90045182868CA
:100BB000C178F3220A40C27000202968887060481A
:100BC0000068FA21890048430499090100F0FBFC00
:100BD00084B280208001844200DB441E28680178B2
:100BE000E0220A40E104C90E1143017028684470F4
:100BF0002868C1780C220A43C27005B0F0BD444891
:100C0000016B802252010A430263C026B600310004
:100C1000622000F081FC31006320C3E7002DC3D1C6
:100C20003B480168474A0A4002600168464A0A4355
:100C30000260464DE878F3210140E9700020A87079
:100C40004348006843494843C10F081840100190C9
:100C5000042601980499721C514300F0B4FC87B239
:100C6000390080208001814236DA701C039001989F
:100C7000039A514300F0A7FC0499411A012902DBB1
:100C80000499401A00E0484280B200281CD0029922
:100C9000884202DA02903C0000967F1CBFB2390005
:100CA00080208001814217DA0198039A514300F0B5
:100CB0008AFC0499411A012902DB0499401A00E0D8
:100CC000484280B2002802D13C00009608E0029918
:100CD000884201DA3C000096761CF6B2212EB8DB81
:100CE0002878E0211F22084023041B0E13400343F1
:100CF0002B706C70A87A0140009802400A43AA72D7
:100D0000E8780C210143E97077E70000FFFF00005D
:100D10000480044010B48022002805D10E480378D6
:100D20001342FBD0C17006E00C4B84001B591C79A8
:100D30001442F9D0D97110BC704700008CE4FF1F39
:100D4000D00A0020FFFFFFF30000010400A00640CE
:100D5000C40A002040420F0004A006408CE4FF1F9C
:100D6000094205D0830705D00270401C491EF9D105
:100D700070470000130030B414001500103902D37E
:100D800010393CC0FCD2490700D30CC000D504C0C8
:100D9000890002D30280801C002900D5027030BC7B
:100DA000704700000022DBE70022E3E70122D207C0
:100DB00003004B402ED4431A01D2C01AC91830B4D4
:100DC0004B180418240E1B0E22D0FF2C20D0E31A3F
:100DD000182B1DDC09021143C40D641E00021043D0
:100DE00094461925ED1A0A00AA40D940451801D3A6
:100DF0006D08A41CE405D209280A2D062A4365467D
:100E0000AA41604103181B0EFF2B01D3C00DC00582
:100E100030BC7047514006E05140CCE70122D20778
:100E200003004B40F8D4431A03D2C01AC9185040EB
:100E3000514030B44B18090211430418240E1B0E04
:100E400040D0FF2C3AD025009D410BD31ED8C50DB4
:100E50004002401A0BD3ED050100400AC90591413B
:100E60006841D5E7C50D40024918401AD0D001218C
:100E70004008491C0018FCD58C4204D36D1A000AA6
:100E8000ED054019C4E7E8051040C1E7182DBFDCA7
:100E9000AC1C0D00E140E5414D40012D4941C40D20
:100EA00000021043451A01D46D199543641EE405F0
:100EB000280A2D069541604130BC7047FF2BA7D111
:100EC000D843A5E72442A3D10020A1E701221206BE
:100ED0000118CA420AD28A420DD8382212060909DC
:100EE0008918C20FD20711434007704700D0490844
:100EF0000909014301E0C10FC90700207047F0B4A0
:100F00000E005E400125ED072E40B446AE0ADF1804
:100F10004C18F4423BD2F74241D2640D43D07F0DCE
:100F200038D0E41BC902DB0229432B43CF0ADB0A7A
:100F30000600B61A9F4104D2641EB6197F41B61846
:100F40005F416812800D24180018844222DAE80CF0
:100F50000021B6197F41B61A9F4102D2B6185F41EF
:100F60003F1C40414941F4D3241C21DD2405B6191E
:100F70007F41B61A9F4105D33743C6073743002642
:100F8000012F7041614166463143F0BC7047FCD18E
:100F9000F74205D20020C14349054908F3E704D0D0
:100FA0000020C143F1E77F0DFAD000206146ECE755
:100FB0002442FAD1401C61410F03F6D30020E2E73E
:100FC000010007D5F446404200F004F80122D207A0
:100FD0001143604742221201D21E004207D002D4C0
:100FE000521E0018FCD5C10A400512058918704729
:100FF000F0B50E005E400125ED072E40B446AE0A66
:10100000DF184C18F44208D2F7420ED2640D01D01A
:101010007F0D12D100206146F0BD05D1F74201D805
:101020007F0D05D10020C143F0BDFBD1640DF9D087
:101030000020C143490549088FE0E419C902DB02D9
:1010400029432B43DB0A460DC00231438E4630B4A0
:1010500087B295B27D432E0CADB2140C7C43A4191B
:10106000260C240425439CB27C43A419190C794313
:10107000270CC919A4B20F043C43090C000C97B209
:1010800047432E0CBE193543ADB2170C4743360CFF
:10109000BF19A6B2BF193E043543240C3E0C3619C5
:1010A0009FB24743BF19BCB23E0C89191F0C47437E
:1010B0007F183E043443390C704680B297B24743E0
:1010C0002E0CBE193543ADB2170C4743360CBF1971
:1010D000A6B2BF193E043543240C3E0C36199FB20C
:1010E0004743BF19BCB23E0C89191F0C47437F18F8
:1010F0003E043443390C77463F0C90B278432E0CB3
:1011000080190604ADB22E43050CA0B22D18120CA6
:101110007A435019020C80B2240CA4189AB27A4374
:10112000121914042043120C89181B0C7B43C91894
:1011300030BCEF0A394203D1B61940414941641E1F
:101140006F12BF0DE41B0BDBFF19BC4211DA240543
:1011500000274208AE417841614166463143F0BD07
:10116000641C05D1401C6141CF0201D34908F4E75A
:1011700050E75DE7F0B40125ED070F005F404FD465
:101180008B4200D1824205D98446100062468C46CB
:1011900019006346DF184C18640D7F0D3AD0661CA9
:1011A000760537D0E61B352E34DCDB022B43DB0A19
:1011B0000C0DC9022943C912202E0DDB1700203E59
:1011C00006D01F00F741F3405F400026012A774117
:1011D000C01871410DD217E01700F741F240574097
:1011E000F3415A40B340F3405A4000268018594119
:1011F0000AD3A21C52050FD0C207012F724117005B
:101200004008CB0718434908641C24054208AF4135
:1012100070416141F0BC7047641C21050020F9E772
:101220006B400AE06B40ABE7F742F3D1E943F1E7EB
:101230002442EFD100200021ECE70C00871A9C41EA
:1012400005D2C01BA141D219634169406B40AE0A6F
:10125000DF184C18F442E7D2640D7F0DE8D0E61B8E
:10126000362ED7DCDB022B43DB0AA4460C0DC90269
:101270002943C90A012E28DC04D1D6075208DF070A
:101280003A435B08EF0A76429041994114D03942C3
:101290003BD1B61940414941761C394204D1761CF4
:1012A000001849413942FAD0B9436746B74208D9D4
:1012B000A41B24052143ADE70042EAD13642E8D120
:1012C000A8E7E40AE1070020A4E7202E0BDD203E7A
:1012D0001F00F340F7415F40012A002257417E4240
:1012E000984191410BE01700F741F2405740F3411C
:1012F0005A40B340F3405A407E42904199410A031C
:1013000003D2641EB619404149410027641E2405DA
:101310004208AE4178416141F0BC7047012252055C
:101320004B18DA4201D9581570475B0D0722D201DC
:101330009B1A10D9FF2B1DD2DB050122D2070A40D0
:1013400013430903020D1143490AC200524100D957
:10135000491CC81870470AD1800A0A030243521276
:10136000921C04D9D3070B40D00518437047C80F0F
:10137000C0077047C80F0002FF30C005704730B487
:1013800005004D400122D20715404B180418240EC9
:1013900030D01B0E34D0FF2C36D0FF2B3CD0E418BD
:1013A0000002090210431143000A090A9446C2B21E
:1013B0004A43000AC3B24B43000A4843110A5B1870
:1013C000190A12061B0C1A43120A091801D44918EB
:1013D000641E080A7F3C23DBFE2C08DAE4050906BC
:1013E0001143634699416041284330BC7047FF2058
:1013F000C005F9E728001B0EFF2BF6D1D043F4E718
:101400002800FF2CF1D1F9E74002F7D1FF2B01D1E1
:101410004902F3D1E005E7E7D8054902E4D0EDE75A
:1014200043020020641CDFD15B129B1CDCD9D80571
:10143000DAE700000122D2070118090E7F3910D423
:1014400049421F310FD4001805D2C0011043C840D3
:1014500000D5D0437047C0011043C84005D4404276
:101460007047002070470042F3D51000704730B439
:1014700005004D400122D20715404B180418240ED8
:1014800028D01B0E2FD0FF2C34D0FF2B37D0E41ADE
:10149000000209021043114343084808D10D1B1AEA
:1014A00002D2641EDB181B18DB18834200D31B1A00
:1014B0004941F9D37F3426DDFE2C08DAE4054808DB
:1014C000C907194391416041284330BC7047FF2050
:1014D000C005F9E728001B0E03D0FF2BF5D1490208
:1014E000F3D0D043F1E7FF2C01D14002F9D1FF2026
:1014F000C005E9E74002F4D1FF2BF8D1F1E728005D
:101500004902E2D0EDE70B0200202442DCD15B125D
:101510009B1CD9D9D805D7E730B41B4A1368540DA2
:101520004509AC401C431460184A43099B00D2583B
:101530001F2301241F250540AC40A0255451034022
:101540009800115030BC704730B40F4A1368540DE6
:101550004509AC401C4314600C4A43099B00D25817
:101560001F2301241F250540AC40A02554510340F2
:10157000980010180268064B0B40E021C90011408A
:101580001943016030BC7047388004406CE4FF1F91
:10159000FFF8FFFFF446002804D4494200F013F896
:1015A000404260474042002905D45FD000F00BF86C
:1015B000404249426047494200F005F849426047CD
:1015C00003460B43E6D40022030A8B420BD20309E5
:1015D0008B4219D243088B422ED2411A00D20146C7
:1015E000524110467047FF2209023FD012068B423B
:1015F00005D3121209028B4201D312120902030908
:101600008B4219D300E0090AC3098B4201D3CB01F5
:10161000C01A524183098B4201D38B01C01A524137
:1016200043098B4201D34B01C01A524103098B423B
:1016300001D30B01C01A5241C3088B4201D3CB0026
:10164000C01A524183088B4201D38B00C01A524109
:1016500043088B4201D34B00C01A5241884200D349
:10166000401A5241CFD201461046704708B5C046D5
:10167000C04608BD38B5194B4409A4001B590124C4
:10168000C506ED0EAC400029596902D1A14359614C
:1016900009E021435961002A196802D1A143196068
:1016A00001E00C431C6080214900FFF735FF31BD8C
:1016B0000A494209920089580122C006C00E8240A0
:1016C000CA60704705494209920089580969C006F5
:1016D000C00EC140C807C00F7047000020E4FF1FC4
:1016E000020074489100405A521E0C2A00D37047E1
:1016F00010B5652801DA002146E0C92801DA012188
:1017000042E0FF222E32904201DA02213CE06432B4
:10171000904201DA032137E06432904201DA042179
:1017200032E06432904201DA05212DE064329042C9
:1017300001DA062128E06432904201DA072123E031
:101740006432904201DA08211EE06432904201DAEC
:10175000092119E06432904201DA0A2114E064326E
:10176000904201DA0B210FE06432904201DA0C2141
:101770000AE06432904201DA0D2105E064329042C1
:1017800001DA0E2100E00F214B4C21702178491C19
:10179000FFF716FF81B2292901DA002042E0512922
:1017A00001DA01203EE0792901DA02203AE0A1299C
:1017B00001DA032036E0C92901DA042032E0F129F8
:1017C00001DA05202EE0FF201A30814201DA0620DE
:1017D00028E02830814201DA072023E028308142C6
:1017E00001DA08201EE02830814201DA092019E0E0
:1017F0002830814201DA0A2014E02830814201DADF
:101800000B200FE02830814201DA0C200AE028305A
:10181000814201DA0D2005E02830814201DA0E20F4
:1018200000E00F20607010BD70B50400FFF758FF96
:101830002248416B420D0A4342631F490A7812074E
:1018400049780904E023DB020B4013430364812140
:101850001B4A11701B4924224A70BA220A701022B6
:101860008B791342FCD10C228B791340082BFAD1CF
:10187000104BA4001B191F259C782C400C71402490
:10188000DE78354025434D7120258E792E42FCD0DF
:101890008D792542FCD002240C708C7914400C2CDC
:1018A000FBD10168802252020A4302601888C0B24C
:1018B00070BD000034E4FF1F68E4FF1F0480044093
:1018C000005006400040064010B582B0102050493C
:1018D0000A68024002D00A68104308604D4C6088D4
:1018E000401C608080B20621FFF76AFE002934D1D7
:1018F0002078282831DA6A4602E069460988491CBE
:101900001180694609880229F7DB43498A688023E8
:101910005B0413438B60414A0A60414A0301181A71
:10192000C0001018486078208860C8688022D205FE
:101930000243CA603B480278802313430370C8689F
:10194000802212060243CA600420374908602078CA
:10195000401C20700220FFF7E6F82078282802D1EA
:1019600001203249087013BD402031490A68024005
:1019700000D1704780B50A68104308600320FFF764
:10198000D2F82448002141800170802000062649B9
:10199000086001BD38B520488021490482680A43A7
:1019A0008260C26852005208C26004221E4B1A6054
:1019B000204A93785B065B0E93701F4B5C68A41CF7
:1019C0005C601C78641C1C708568294381607821E8
:1019D0008160124901601249E4B225012C1BE40028
:1019E00009194160117880240C431470C168802269
:1019F000D2050A43C2600D481978282905D1012172
:101A000001700120FFF78FF831BD0021017031BD59
:101A1000A0B00440D40A00202081004012F10F4001
:101A2000A8E4FF1F0210024000E100E0DB0A0020F2
:101A3000A090044000100240A0E4FF1F80B500F019
:101A400077F800F037F800F003F800F07FF8FEE7D1
:101A500038B5082028490A78024202D00A78104393
:101A60000870264C0B20FFF7DFFE2060244D296C08
:101A7000090F491CFFF7A7FDA060FA218900484320
:101A80006060296C4903490F491CFFF79CFDE06029
:101A9000686BE90C01436963A020C0001949086024
:101AA0002868402101432960E12149020020FFF715
:101AB00051F831BD10B51449144C8C4204D0822227
:101AC000D200200000F0B6F8200000F0CDF8104958
:101AD0001048421A02D0104800F098F80F481049F8
:101AE000091A01D0FFF75EF90E490F48421A02D0D9
:101AF0000E4800F08BF810BD02D00740C40A002049
:101B0000048004400CB004400000000000E0FF1F0F
:101B1000481E0000D81E000010E4FF1F9CE4FF1FB9
:101B2000DF0A00201004000010040000DF0A00207B
:101B300005480168034A116001680C229143016065
:101B400070470000C00A00200081044080B500F00A
:101B500005F800F095F8FEF75FFCFAE710B50020F5
:101B6000FEF7C4FF0120FEF7C1FF0220FEF7BEFF13
:101B70000320FEF7BBFF00F0ABF8E1214902002093
:101B8000FEF7E8FF18480168184A0A400260184941
:101B90002F2000F06CF8174C8020000620601649BA
:101BA0002E2000F064F88020C00520601349122028
:101BB00000F05DF804202060FEF743FD104C114B4F
:101BC000220000210020FEF71EFF00232200012139
:101BD0000020FEF718FF0C4B642201210220FEF7C3
:101BE00012FF62B610BD00001CE400E0FFFF00FF22
:101BF000C918000000E100E0691900009519000013
:101C00001027000094110000B1030000124207D019
:101C10008B0706D00B78491C0370401C521EF7D866
:101C20007047830706D00B78491C0370401C521E76
:101C3000F9D1704770B4103A03D378C9103A78C01C
:101C4000FBD2530701D318C918C001D508C908C071
:101C5000D20704D30B880380891C801C002A01D57D
:101C60000B78037070BC7047034908607047034AE3
:101C7000800011507047000008ED00E000E0FF1FF9
:101C800010B50F4C2220FFF71DFD20702820FFF714
:101C900019FD60702920FFF715FDA0702278511EF4
:101CA0008941C90F074A11706278511E8941C90FD5
:101CB000054A1170411E8941C90F0448017010BDC9
:101CC000D80A0020DC0A0020DD0A0020DE0A0020FD
:101CD00000B583B0012200219020FFF7CBFC012248
:101CE00000219120FFF7C6FC012200219220FFF77E
:101CF000C1FC012200219320FFF7BCFC012200213E
:101D00009420FFF7B7FC012200219520FFF7B2FCD9
:101D1000012200219620FFF7ADFC0122002197202F
:101D2000FFF7A8FC012200214320FFF7A3FC0D4987
:101D30000620FFF7F1FB0C494420FFF7EDFB802163
:101D400089024320FFF700FC7820019001200090D9
:101D50004323064A0649022000F00CF803B000BDF8
:101D60000000000013010A0012010900A8E4FF1F8F
:101D700012F10F40F8B50C006B46182159560B00B4
:101D8000012901D1082507E0022904D0002901D149
:101D9000042300E00023DD00264B5E689F0D3743DF
:101DA0005F601E68022737431F60234B1F18002304
:101DB0003B70224B000118188368802676041E436E
:101DC0008660046042600B05C02292031A404B04F7
:101DD000C021C90219401143194A0A43C260079938
:101DE0000902090A8160BC203870164968460078EB
:101DF000FFF792FBA0094001103CE1004418601974
:101E0000461EF6B2E4B2A6420ED381256D00002232
:101E100000212000FFF72EFC29002000FFF77CFBAB
:101E2000641CE4B2A642F2D238784006400E387004
:101E3000F1BD00BF3C800440001002400081004022
:101E400080000860000101006E003B0000806D44CE
:101E50009A99193F0000C04000F00FF840F00FF8C9
:101E600080F00FF8C0F00FF800F10FF800000A1D25
:101E70003000030040000200420003094400030A4E
:101E800048000203500002066000010080000218B2
:101E90008800010A9400010DC800011ADC00011F2E
:101EA000000100000090044000A0044000B0044085
:101EB00000C0044000D00440008003400090034074
:101EC00000A0034000A0064000B0064000C006404D
:101ED000646566670000000010B507497944183151
:101EE000064C7C44163404E0081D0A6889188847AB
:101EF0000100A142F8D110BD08000000140000004C
:101F00000BEAFFFF442600009CE4FF1F00000000D6
:101F10000120C046002801D0FFF7DEFF0020C046A8
:101F2000C046FFF713FE00F000F880B500F002F89D
:101F300001BD00000746384600F002F8FBE700004C
:101F400080B5C046C046024A11001820ABBEFBE770
:101F500026000200C046C046C046C046FFF7D8FF74
:021F60007047C8
:0400000500001F5583
:00000001FF
